:020000040800F2
:1000000030600020E1010008E5290008AB27000866
:10001000E1290008710200086D2F000800000000AF
:10002000000000000000000000000000490100087E
:10003000F1020008000000008D010008112A0008EC
:10004000FB010008FB010008FB010008FB010008A0
:10005000FB010008FB010008FB010008FB01000890
:10006000FB010008FB010008FB010008FB01000880
:10007000FB01000895020008A5020008B50200086F
:10008000FB010008FB010008FB0100084D2F0008E0
:100090005D2F00087502000885020008FB010008BA
:1000A000FB010008FB010008FB010008FB01000840
:1000B000FB010008FB010008FB010008FB01000830
:1000C000FB010008FB010008FB010008FB01000820
:1000D000FB0100082D2F0008FB0100083D2F000840
:1000E000FB010008FB010008FB010008FB01000800
:1000F000FB010008FB010008FB010008FB010008F0
:10010000FB010008FB010008FB010008FB010008DF
:10011000FB010008FB010008FB010008AD2A0008F4
:10012000FB010008FB010008FB010008FB010008BF
:10013000DFF810D000F08AF8004800473F3100088F
:10014000AFF3008030600020224B19680868B0E8E7
:10015000F00F80F30988BFF36F8F4FF0000080F33A
:1001600011884EF00D0E7047000000000648006830
:10017000006880F3088862B661B6BFF34F8FBFF3A3
:100180006F8F00DF00BF00BF08ED00E0EFF30980D4
:10019000BFF36F8F0F4B1A6820E9F00F106008B59E
:1001A0004FF0500080F31188BFF34F8FBFF36F8F74
:1001B00004F0FEF84FF0000080F31188BDE808401D
:1001C00019680868B0E8F00F80F30988BFF36F8FF3
:1001D000704700BF14000020EFF305807047000057
:1001E0000648804706480047FEE7FEE7FEE7FEE7D1
:1001F000FEE7FEE7FEE7FEE7FEE7FEE7AB2A0008C4
:100200003101000840EA01039B0703D009E008C957
:10021000121F08C0042AFAD203E011F8013B00F8CB
:10022000013B521EF9D27047D2B201E000F8012B17
:10023000491EFBD270470022F6E710B513460A4666
:1002400004461946FFF7F0FF204610BD064C074D47
:1002500006E0E06840F0010394E807009847103496
:10026000AC42F6D3FFF768FF6C5100088C510008D0
:1002700000BFFEE710B5024800F0D7F910BD00003E
:100280008C00002010B5024800F0CFF910BD00002E
:100290008C00002010B5024800F05AFD10BD00008F
:1002A0001402002010B5024800F052FD10BD0000FD
:1002B000D001002010B5024800F04AFD10BD00003A
:1002C0008C01002030B590F840500124AC40C56B43
:1002D0006C60046863604468102C04D10468A260F8
:1002E0000468E16003E00468A1600468E26030BD76
:1002F000704772B600BFFEE7F0B504460D461E46D5
:1003000094F8207020688368A86800B900E000BFF6
:10031000012F01D0022F7DD103F0806030B903F0AE
:10032000006018B903F0805000287ED0C3F301614B
:10033000012088403060A86860B9B5F800C0E8685E
:1003400040EA4C5C206800F5C07000EB0110C0F87A
:1003500000C00FE0D5E901C040EACC00D5F80CC0E0
:1003600040EA0C00D4F800C00CF5C07C0CEB011C7A
:10037000CCF80000D5F810C0206800F5C07000EB84
:100380000110C0F804C0287D01280ED1206800F5B6
:10039000C07000EB0110406840F4807C206800F5DC
:1003A000C07000EB0110C0F804C0D079000692F8CC
:1003B00006C040EA0C4092F805C040EA0C2092F8D2
:1003C00004C040EA0C00D4F800C00CF5C07C0CEB73
:1003D000011CCCF80C00D078000692F802C040EA6C
:1003E0000C4092F801C040EA0C2092F800C040EAAC
:1003F0000C00D4F800C00CF5C07C0CEB011CCCF850
:100400000800206800F5C07000EB0110006840F0A3
:10041000010C01E00FE008E0206800F5C07000EB7F
:100420000110C0F800C00020F0BD606A40F4001068
:1004300060620120F8E7606A40F480206062012079
:10044000F2E7000010B504460348844202D1034895
:1004500002F0C2FD10BD00008C000020A0020020B0
:1004600070B5044694F82050012D01D0022D7DD1A5
:1004700051B92068C06800F0030080B9606A40F498
:1004800000106062012070BD2068006900F0030068
:1004900028B9606A40F4001060620120F3E7206828
:1004A00000F5D87000EB0110006800F004009060C7
:1004B000906840B9206800F5D87000EB0110006822
:1004C000400D106007E0206800F5D87000EB0110C7
:1004D0000068C0085060206800F5D87000EB01107B
:1004E000006800F00200D060206800F5D87000EBD2
:1004F0000110406800F00F00082802D308201061A6
:1005000008E0206800F5D87000EB0110406800F0AA
:100510000F001061206800F5D87000EB01104068F2
:1005200000F47F40000A9061206800F5D87000EB6D
:1005300001104068000C5061206800F5D87000EB95
:10054000011080681870206800F5D87000EB011069
:10055000806800F47F40000A5870206800F5D87069
:1005600000EB0110806800F47F0000E03CE0000C2C
:100570009870206800F5D87000EB01108068000EBC
:10058000D870206800F5D87000EB0110C0681871B1
:10059000206800F5D87000EB0110C06800F47F40BF
:1005A000000A5871206800F5D87000EB0110C0688F
:1005B00000F47F00000C9871206800F5D87000EB03
:1005C0000110C068000ED87131B92068C06840F0D1
:1005D00020002668F06005E02068006940F02000F7
:1005E0002668306100204EE7606A40F48020606237
:1005F000012048E70146002091F82020012A01D07F
:10060000022A11D10B689B6803F0806303B1401C80
:100610000B689B6803F0006303B1401C0B689B6888
:1006200003F0805303B1401C70472DE9F05F04468E
:100630000025206846692068D0F804902068876803
:100640002068D0F80CA02068D0F810B02068D0F84E
:10065000188006F00100002855D007F00100C0B155
:1006600001202168886007F0020018B1204600F0E0
:1006700041FA0EE007F0040010B145F4006508E00F
:1006800007F0080010B145F4805502E0204600F064
:1006900030FA07F48070C8B14FF480702168886028
:1006A00007F4007018B1204600F034FA0EE007F4A9
:1006B000806010B145F4005508E007F4006010B107
:1006C00045F4804502E0204600F022FA07F480302D
:1006D000C8B14FF480302168886007F4003018B149
:1006E000204600F027FA0EE007F4802010B145F410
:1006F000004508E007F4002010B145F4803502E021
:10070000204600F015FA06F0080038B10AF0100093
:1007100020B145F4007510202168C86006F004007F
:1007200040B10AF0080028B108202168C8602046BE
:1007300000F0C0F906F0020038B12068C06800F08F
:10074000030010B1204600F0B7F906F0400038B1C0
:100750000BF0100020B145F480651020216808617D
:1007600006F0200040B10BF0080028B108202168F5
:100770000861204600F0BAF906F0100038B1206890
:10078000006900F0030010B1204600F0B0F906F453
:10079000003040B109F0100028B1102021684860F5
:1007A000204600F0A5F906F4803040B109F00800B9
:1007B00028B1082021684860204600F0C9F906F4F5
:1007C000004088B309F0040078B306F4807020B1CB
:1007D00008F0010008B145F0010506F4007020B1F1
:1007E00008F0020008B145F0020506F4806020B16F
:1007F00008F0040008B145F0040506F40060A0B15B
:1008000008F0700088B108F07000402817D006DCAE
:1008100010280BD020280CD0302819D10CE05028FB
:1008200010D0602814D110E01DE019E045F0080553
:100830000FE045F010050CE045F0200509E045F01B
:10084000400506E045F0800503E045F4807500E0D2
:1008500000BF00BF2068806920F0700021688861B7
:100860000420216848602DB1606A284360622046F8
:10087000FFF7E8FDBDE8F09F70B504460CB9012014
:1008800070BD94F8200010B9204600F0AFF8206841
:10089000006840F001002168086000F05FFE054636
:1008A0000DE000F05BFE401B0A2808D9606A40F4A6
:1008B00000306062052084F820000120E0E7206815
:1008C000406800F001000028EBD02068006820F0AC
:1008D00002002168086000F041FE05460DE000F0CE
:1008E0003DFE401B0A2808D9606A40F4003060626F
:1008F000052084F820000120C2E72068406800F04D
:1009000002000028EBD1207E012806D12068006873
:1009100040F080002168086005E02068006820F051
:10092000800021680860607E012806D12068006888
:1009300040F040002168086005E02068006820F071
:10094000400021680860A07E012806D12068006868
:1009500040F020002168086005E02068006820F071
:10096000200021680860E07E012806D12068006828
:1009700020F010002168086005E02068006840F061
:10098000100021680860207F012806D120680068D7
:1009900040F008002168086005E02068006820F049
:1009A000080021680860607F012806D1206800687F
:1009B00040F004002168086005E02068006820F02D
:1009C000040021680860D4E9020108432169084352
:1009D000616908436168491E08432168C8610020B5
:1009E0006062012084F82000002049E710B586B03D
:1009F0000446002002900390049005902A49206844
:100A000088424ED100BF2948C06940F00070274994
:100A1000C8610846C06900F00070019000BF00BFC7
:100A200000BF0846806940F004008861084680697C
:100A300000F00400019000BF00BFC8140290002025
:100A40000390049002A91A4800F0E2FB4FF4805092
:100A50000290022003900320059002A9144800F0A0
:100A6000D7FB00220521132000F038FE132000F0F0
:100A700025FE00220521142000F030FE142000F095
:100A80001DFE00220521152000F028FE152000F093
:100A900015FE00220521162000F020FE162000F091
:100AA0000DFE06B010BD00000064004000100240C2
:100AB000000801407047000010B58AB0044601AB41
:100AC00003AA00212046FFF7CBFC0648844207D149
:100AD0000548C06A20B1044801A9C26A03A890472A
:100AE0000AB010BD8C000020A002002070477047A3
:100AF0007047704710B504460348844202D103484A
:100B000002F06AFA10BD00008C000020A002002054
:100B10007047000010B504460348844202D10348E0
:100B200002F05AFA10BD00008C000020A002002044
:100B30007047000010B504460348844202D10348C0
:100B400002F04AFA10BD00008C000020A002002034
:100B500070470146002291F82100022808D00420A5
:100B6000886300BF002081F8200000BF012070478B
:100B70000868006820F00E000B68186008680068BC
:100B800020F001000B68186091F840300120984077
:100B9000CB6B5860012081F8210000BF002081F854
:100BA000200000BF1046E2E770B50446002594F827
:100BB0002100022803D00420A0630125C1E02068A1
:100BC000006820F00E00216808602068006820F0AE
:100BD0000100216808605C492068884252D95A495E
:100BE00078392068884201D1012047E056496439AC
:100BF0002068884201D1102040E0534950392068D4
:100C0000884201D1801539E04F493C39206888423B
:100C100001D1801432E04C4928392068884202D141
:100C20004FF480302AE0484914392068884202D1C4
:100C30004FF4801022E044492068884201D14004EA
:100C40001CE042492068884201D1012016E03F495A
:100C500014312068884201D110200FE03B4928312F
:100C60002068884201D1801508E038493C3120686D
:100C7000884201D1801401E04FF480303349091FCC
:100C8000086051E0304978392068884201D101205C
:100C900047E02D4964392068884201D1102040E0A6
:100CA000294950392068884201D1801539E0264908
:100CB0003C392068884201D1801432E02249283929
:100CC0002068884202D14FF480302AE01E4914394E
:100CD0002068884202D14FF4801022E01A4920682F
:100CE000884201D140041CE018492068884201D1A3
:100CF000012016E0154914312068884201D11020E6
:100D00000FE0124928312068884201D1801508E09F
:100D10000E493C312068884201D1801401E04FF433
:100D20008030094980394860012084F8210000BFE3
:100D3000002084F8200000BF606B10B12046616B7A
:100D40008847284670BD0000800002400804024029
:100D500070B50446E06B05682068066894F840109A
:100D6000042088402840002875D006F004000028A0
:100D7000FAD02068006800F0200028B920680068D8
:100D800020F0040021680860D5492068884254D9C1
:100D9000D34978392068884201D1042049E0D049FC
:100DA00064392068884201D1402042E0CC49503962
:100DB0002068884201D100153BE0C9493C392068D0
:100DC000884202D14FF4804033E0C5492839206879
:100DD000884202D14FF480202BE0C14914392068A9
:100DE000884202D14FF4800023E0BD492068884248
:100DF00001D1C0041DE0BB492068884201D1042014
:100E000017E0B84914312068884201D1402010E031
:100E1000B44928312068884201D1001509E0B14960
:100E20003C312068884202D14FF4804001E04FF409
:100E30008020AC49091F086054E0A949783920682E
:100E4000884201D104204AE0A549643920688842DB
:100E500002D1402043E04CE0A1495039206888424B
:100E600001D100153BE09E493C392068884202D1FF
:100E70004FF4804033E09A4928392068884202D1F3
:100E80004FF480202BE0964914392068884202D123
:100E90004FF4800023E092492068884201D1C004C9
:100EA0001DE090492068884201D1042017E08D4957
:100EB00014312068884201D1402010E0894928314E
:100EC0002068884201D1001509E086493C3120683C
:100ED000884202D14FF4804001E04FF480208049E5
:100EE00080394860E06A002802D02046E16A8847DD
:100EF000F4E094F84010022088402840002871D087
:100F000006F002000028FAD02068006800F02000F7
:100F100040B92068006820F00A00216808600120BC
:100F200084F821006E492068884254D96C49783988
:100F30002068884201D1022049E06949643920686B
:100F4000884201D1202042E065495039206888421A
:100F500001D140153BE062493C392068884202D10A
:100F60004FF4005033E05E4928392068884202D1AE
:100F70004FF400302BE05A4914392068884202D1DE
:100F80004FF4001023E056492068884201D18004C4
:100F90001DE054492068884201D1022017E05149E0
:100FA00014312068884201D1202010E04D492831B9
:100FB0002068884201D1401509E04A493C31206847
:100FC000884202D14FF4005001E04FF4003045490F
:100FD000091F086054E0424978392068884202D1EC
:100FE00002204AE057E03E4964392068884201D136
:100FF000202042E03A4950392068884201D140150A
:101000003BE037493C392068884202D14FF4005018
:1010100033E0334928392068884202D14FF4003048
:101020002BE02F4914392068884202D14FF4001078
:1010300023E02B492068884201D180041DE0294922
:101040002068884201D1022017E026491431206827
:10105000884201D1202010E02249283120688842AE
:1010600001D1401509E01F493C312068884202D176
:101070004FF4005001E04FF40030194980394860C6
:1010800000BF002084F8200000BFA06A30B32046D3
:10109000A16A884722E094F8401008208840284040
:1010A000E0B106F00800C8B12068006820F00E002A
:1010B0002168086094F8401001208840E16B486086
:1010C0000120A06384F8210000BF002084F82000E4
:1010D00000BF206B10B12046216B884770BD000017
:1010E00080000240080402400146002209B90120A4
:1010F00070471E4B086898420BD21D4B0868C01AF7
:101100001423B0FBF3F08000086419480838C86362
:101110000AE0164B0868C01A1423B0FBF3F08000F5
:10112000086412480838C863022081F82100086862
:10113000026843F6F0708243D1E901031843CB689B
:1011400018430B6918434B6918438B691843CB69E3
:10115000184302430868026000208863012081F878
:101160002100002081F8200000BFC1E708040240F0
:10117000080002402DE9F04104460D4616461F4680
:101180004FF0000800BF94F82000012802D102208F
:10119000BDE8F081012084F8200000BF94F8210010
:1011A00001282CD1022084F821000020A0632068AF
:1011B000006820F00100216808603B46324629465D
:1011C0002046FFF77FF8E06A30B12068006840F001
:1011D0000E00216808600BE02068006820F0040021
:1011E000216808602068006840F00A0021680860F3
:1011F0002068006840F001002168086006E000BF38
:10120000002084F8200000BF4FF002084046BFE7EE
:101210002DE9F847024600239C467BE14FF0010888
:1012200008FA03F4D1F8008008EA0400A0427DD156
:10123000DFF8F4A2D1F80480A8EB0A09D0453AD02F
:1012400014DCB8F1030F50D009DCB8F1000F31D035
:10125000B8F1010F1CD0B8F1020F49D120E0B8F16C
:10126000110F18D0B8F1120F42D11EE0B9F5881F46
:1012700025D006DCB9F5803F20D0B9F5801F37D1E5
:101280001AE0B9F5001F18D0B9F5041F30D117E0E6
:10129000D1F80CC02DE0D1F80C8008F1040C28E046
:1012A000D1F80C8008F1080C23E0D1F80C8008F18B
:1012B0000C0C1EE000BF00BF00BF00BF00BF00BF9E
:1012C000D1F80880B8F1000F02D14FF0040C0BE008
:1012D000D1F80880B8F1010F03D14FF0080C146168
:1012E00002E04FF0080C546103E04FF0000C00E006
:1012F00000BF00BFFF2801D8904601E002F10408BA
:101300004646FF2802D84FEA830803E0A3F1080805
:101310004FEA88084746D6F800804FF00F0909FACF
:1013200007F928EA09080CFA07F900E07AE048EA28
:101330000908C6F80080D1F8048008F08058B8F198
:10134000805F6FD100BFDFF8E481D8F8188048F0E3
:101350000108DFF8D891C9F81880C846D8F8188075
:1013600008F00108CDF8008000BF00BF4FEAB9388F
:101370004FEA930958F829504FEA83784FEA1879D1
:101380004FF00F0808FA09F825EA0805DFF8A081F0
:10139000424502D14FF0000824E0DFF89881424531
:1013A00002D14FF001081DE0DFF88C81424502D1E7
:1013B0004FF0020816E0DFF88481424502D14FF079
:1013C00003080FE0DFF87881424502D14FF00408AE
:1013D00008E0DFF87081424502D14FF0050801E0D6
:1013E0004FF006084FEA83794FEA197908FA09F8AD
:1013F00048EA0505DFF850814FEA930948F829507B
:10140000D1F8048008F48018B8F5801F0BD1DFF8FC
:101410003C81D8F8008048EA0008DFF83091C9F82C
:1014200000800AE075E0DFF82481D8F8008028EA1F
:101430000008DFF81891C9F80080D1F8048008F49A
:101440000018B8F5001F0ED1DFF8008108F104087C
:10145000D8F8008048EA0008DFF8F09009F10409A4
:10146000C9F800800DE0DFF8E48008F10408D8F83E
:10147000008028EA0008DFF8D49009F10409C9F8CF
:101480000080D1F8048008F40038B8F5003F0ED190
:10149000DFF8B880A8F10408D8F8008048EA00080E
:1014A000DFF8A890A9F10409C9F800800DE0DFF881
:1014B0009C80A8F10408D8F8008028EA0008DFF82A
:1014C0008C90A9F10409C9F80080D1F8048008F4CF
:1014D0008038B8F5803F0ED1DFF87080A8F1080899
:1014E000D8F8008048EA0008DFF86090A9F1080900
:1014F000C9F800800DE0DFF85480A8F10808D8F89A
:10150000008028EA0008DFF84490A9F10809C9F82A
:1015100000805B1CD1F8008028FA03F8B8F1000FB6
:101520007FF47CAEBDE8F887000011100010024087
:1015300000080140000C014000100140001401406F
:1015400000180140001C014008000140080401404F
:101550000AB1016101E00B040361704701480068B2
:101560007047000004000020034800680349097820
:101570000844014908607047040000200C00002066
:1015800010B50848006840F01000064908600320C4
:1015900000F0E2F80F2000F007F800F05FF80020FC
:1015A00010BD0000002002402DE9F04188B0044643
:1015B0000027B846002600BF2348C06940F020003D
:1015C0002149C8610846C06900F02000019000BFB1
:1015D00000BF02A903A800F099F9069F1FB900F007
:1015E000BDF9054602E000F0B9F945001748B5FB22
:1015F000F0F0A0F1010816481649086040F2E73102
:101600001448C160C0F804800021016181608161DB
:1016100000F030FC064696B90E4800F05FFC064626
:101620006EB9372000F04AF8102C07D2002221466C
:10163000372000F053F80848046000E001263046E7
:1016400008B0BDE8F08100000010024040420F00E9
:1016500000140040580200200800002008B500BF18
:101660001448806940F00100124988610846806989
:1016700000F00100009000BF00BF00BF0846C06935
:1016800040F08050C8610846C06900F0805000906A
:1016900000BF00BF00220F21901E00F01FF800BF06
:1016A0000549486820F0E06040F00070486000BFE5
:1016B00008BD00000010024000000140014608463D
:1016C000002809DB00F01F0301229A4043099B0018
:1016D00003F1E023C3F8002100BF70472DE9F05F5C
:1016E00080460D461646002701F042FC0746394663
:1016F0002A46334601F00700C0F1070ABAF1040F89
:1017000002D94FF0040A01E0C0F1070AD14600F106
:10171000040ABAF1070F02D24FF0000A01E0A0F16B
:10172000030AD4464FF0010A0AFA09FAAAF1010A9B
:101730000AEA020A0AFA0CFA4FF0010B0BFA0CFB48
:10174000ABF1010B0BEA030B4AEA0B0421464046BE
:1017500001F016FCBDE8F09F00BF00F00702064B49
:1017600019684FF6FF031940044B0B4343EA02216B
:10177000014B196000BF70470CED00E00000FA0556
:1017800070B504460D460CB9012070BD5A4800687A
:1017900000F00700A8420ED25748006820F007006A
:1017A0002843554908600846006800F00700A84231
:1017B00001D00120E9E7207800F0020002281DD1C5
:1017C000207800F00400042805D14C48406840F41B
:1017D000E0604A494860207800F00800082805D1F8
:1017E0004648406840F46050444948604348406877
:1017F00020F0F000A168084340494860207800F0DC
:10180000010078B36068012806D13C48006800F404
:10181000003090B90120B8E76068022806D1374847
:10182000006800F0007040B90120AEE7334800685E
:1018300000F0020008B90120A7E73048406820F016
:101840000300616808432D494860FFF787FE06469C
:1018500009E0FFF783FE801B41F28831884202D9FC
:10186000032092E707E02548406800F00C0061681B
:10187000B0EB810FEDD12048006800F00700A842CE
:101880000ED91D48006820F0070028431A49086057
:101890000846006800F00700A84201D0012074E764
:1018A000207800F00400042807D11448406820F490
:1018B000E060E168084311494860207800F00800C2
:1018C000082808D10D48406820F46050216940EA9A
:1018D000C1000A49486000F061F808494968C1F34D
:1018E0000311074A515CC840064908600648006871
:1018F000FFF75AFE002048E7002002400010024097
:101900004251000810000020080000200F22026051
:101910000D4A526802F0030242600B4A526802F01C
:10192000F0028260084A526802F4E062C260064A2D
:10193000526802F46052D2080261044A126802F04E
:1019400007020A60704700000010024000200240B9
:1019500001480068704700001000002000B5FFF744
:10196000F7FF04494968C1F30221034A515CC840AA
:1019700000BD0000001002405251000800B5FFF702
:10198000E7FF04494968C1F3C221034A515CC840DA
:1019900000BD0000001002405251000870B5002147
:1019A0000022002400230020134D696801F00C057B
:1019B000F5B1042D02D0082D19D101E00F4819E02E
:1019C0000F4DC1F38346AB5D01F4803555B10A4D2F
:1019D0006D68C5F340450B4E725D084D5D43B5FB28
:1019E000F2F402E0084D03FB05F4204602E000BFDC
:1019F000024800BF00BF70BD0010024000127A0014
:101A0000305100084051000800093D00F8B5044677
:101A10000CB90120F8BD207800F00100002878D032
:101A2000F848406800F00C0004280CD0F5484068E5
:101A300000F00C00082811D1F248406800F4803012
:101A4000B0F5803F0AD1EF48006800F4003000286C
:101A50005FD0606800285CD10120DBE700BF6068D0
:101A6000B0F5803F06D1E748006840F48030E54992
:101A7000086028E0606858B9E248006820F48030C7
:101A8000E04908600846006820F4802008601AE0F9
:101A90006068B0F5A02F0BD1DA48006840F48020D0
:101AA000D84908600846006840F4803008600AE0C1
:101AB000D448006820F48030D249086008460068A5
:101AC00020F48020086000BF606888B1FFF746FD01
:101AD000054606E0FFF742FD401B642801D90320BC
:101AE00098E7C848006800F400300028F2D010E001
:101AF000FFF734FD054606E0FFF730FD401B642884
:101B000001D9032086E7BF48006800F400300028B0
:101B1000F2D1207800F00200022857D1B94840687D
:101B200000F00C0050B1B748406800F00C000828E5
:101B300018D1B448406800F4803098B9B1480068C2
:101B400000F0020020B12069012801D0012061E7E6
:101B5000AC48006820F0F800616940EAC100A9497A
:101B6000086033E02069E8B10120A7490860FFF769
:101B7000F5FC054606E0FFF7F1FC401B022801D901
:101B8000032047E79F48006800F002000028F2D0D9
:101B90009C48006820F0F800616940EAC10099495A
:101BA000086013E0002098490860FFF7D7FC05465D
:101BB00006E0FFF7D3FC401B022801D9032029E7E8
:101BC0009048006800F002000028F2D1207800F070
:101BD000080008282DD1A069B8B101208B49086000
:101BE000FFF7BCFC054606E0FFF7B8FC401B0228E7
:101BF00001D903200EE78348406A00F00200002864
:101C0000F2D0012000F0F0FE13E000207F490860D0
:101C1000FFF7A4FC054606E0FFF7A0FC401B0228E6
:101C200001D90320F6E67748406A00F00200002858
:101C3000F2D1207800F00400042873D10027714805
:101C4000C06900F0805070B900BF6E48C06940F0B4
:101C500080506C49C8610846C06900F0805000900F
:101C600000BF00BF01276A48006800F48070B0B967
:101C70006748006840F4807065490860FFF76EFCB3
:101C8000054606E0FFF76AFC401B642801D90320E3
:101C9000C0E65F48006800F480700028F2D000BF02
:101CA000E068012806D15748006A40F00100554914
:101CB000086227E0E06858B95248006A20F0010045
:101CC000504908620846006A20F00400086219E0E2
:101CD000E06805280BD14B48006A40F004004949F0
:101CE00008620846006A40F0010008620AE04548C0
:101CF000006A20F00100434908620846006A20F0AB
:101D00000400086200BFE068A0B1FFF727FC0546A9
:101D100009E0FFF723FC401B41F28831884202D9D9
:101D2000032077E622E03748006A00F0020000282E
:101D3000EFD012E0FFF712FC054608E0FFF70EFCBB
:101D4000401B41F28831884201D9032062E62D48C8
:101D5000006A00F002000028F0D1012F05D12948C7
:101D6000C06920F080502749C86100BFE069C8B34E
:101D70002448406800F00C00082860D0E069022880
:101D800048D1002020490866FFF7E8FB054606E039
:101D9000FFF7E4FB401B022801D903203AE619486B
:101DA000006800F000700028F2D1206AB0F5803F92
:101DB00007D11448406820F40030A1680843114955
:101DC0004860D4E9080108430E49496821F47411B8
:101DD00008430C49486001200B490866FFF7BEFB29
:101DE000054607E03DE0FFF7B9FB401B022801D99B
:101DF00003200FE60348006800F000700028F2D0CE
:101E00002FE00000001002400000424280044242E5
:101E100000700040002014490866FFF79FFB05464C
:101E200006E0FFF79BFB401B022801D90320F1E5E8
:101E30000E48006800F000700028F2D111E0E0695F
:101E4000012800D1E6E50948466806F48031206A99
:101E5000814204D106F47011606A814201D00120F0
:101E6000D8E50020D6E50000000042420010024004
:101E70007047704710B504460CB9012010BD94F8A6
:101E80003D0028B9002084F83C00204600F025F8E9
:101E9000022084F83D00211D206800F00FFE012083
:101EA00084F8460000BF84F83E0001213F20015520
:101EB000402001554120015500BF00BF012084F89A
:101EC000420043200155442001554520015500BFE3
:101ED000012084F83D000020D0E77047014691F8CA
:101EE0003D00012801D001207047022081F83D000B
:101EF0000868C06840F001000B68D860164B08689D
:101F0000984213D0154B086898420FD00868B0F17A
:101F1000804F0BD0124B0868984207D0114B0868CD
:101F2000984203D0104B086898420CD1086880682A
:101F300000F00702062A0CD00868006840F0010093
:101F40000B68186005E00868006840F001000B6845
:101F500018600020C8E70000002C01400034014058
:101F60000004004000080040000C0040704710B51D
:101F7000044620680069C0F34000D8B12068C068FA
:101F8000C0F34000B0B16FF0020021680861012089
:101F900020772068806900F0030018B12046FFF721
:101FA000E5FF05E0204600F0ADF8204600F0ABF874
:101FB0000020207720680069C0F38000D8B1206835
:101FC000C068C0F38000B0B16FF004002168086100
:101FD000022020772068806900F4407018B1204604
:101FE000FFF7C4FF05E0204600F08CF8204600F023
:101FF0008AF80020207720680069C0F3C000D8B1BB
:102000002068C068C0F3C000B0B16FF0080021685C
:102010000861042020772068C06900F0030018B12F
:102020002046FFF7A3FF05E0204600F06BF82046AE
:1020300000F069F80020207720680069C0F30010E4
:10204000D8B12068C068C0F30010B0B16FF01000C4
:1020500021680861082020772068C06900F440707A
:1020600018B12046FFF782FF05E0204600F04AF84D
:10207000204600F048F8002020772068006900F032
:10208000010058B12068C06800F0010030B16FF065
:10209000010021680861204600F036F820680069D8
:1020A000C0F3C01058B12068C068C0F3C01030B190
:1020B0006FF08000216808612046FFF7D9FE206894
:1020C0000069C0F3801058B12068C068C0F3801068
:1020D00030B16FF0400021680861204600F020F820
:1020E00020680069C0F3401058B12068C068C0F390
:1020F000401030B16FF02000216808612046FFF7E2
:10210000B8FE10BD7047704710B5044603492068FB
:10211000884201D1FFF728FA10BD000000140040EA
:1021200070477047704700002DE9F84F044620685B
:1021300005682068C668206847694FF00009CA46EC
:1021400005F00F09B9F1000F0AD105F0200038B1F0
:1021500006F0200020B1204600F0BCFDBDE8F88F5D
:10216000B9F1000F7BD007F0010018B906F49070A8
:10217000002874D005F0010030B106F4807018B169
:10218000606C40F00100606405F0040030B107F0BD
:10219000010018B1606C40F00200606405F00200BC
:1021A00030B107F0010018B1606C40F004006064C9
:1021B00005F0080048B106F0200010B907F0010052
:1021C00018B1606C40F008006064606C002845D075
:1021D00005F0200028B106F0200010B1204600F0E4
:1021E00079FD20684069C0F3801A606C00F0080037
:1021F00010B9BAF1000F2CD0204600F012FD206873
:10220000406900F0400000B300BF00BF21681431F6
:1022100051E8001F21F040002168143141E800021C
:10222000002AF3D100BFE06B50B17748E16B4863FF
:10223000E06BFEF7B9FC88B1E06B416B88470DE0BD
:102240002046FFF76FFF09E009E02046FFF76AFF2D
:1022500004E02046FFF766FF002060647EE7206B05
:10226000012877D105F01000002873D006F0100087
:102270000028FAD000BF002000902068006800907D
:1022800020684068009000BF00BF2068406900F0EF
:10229000400000285FD0E06B006840681FFA80F8BB
:1022A000B8F1000F55D0A08D404552DDA4F82E8026
:1022B000E06B8069202843D000BF00BF21680C314B
:1022C00051E8001F21F4807021680C3141E80002C0
:1022D000002AF3D100BF00BF00BF2168143151E8CC
:1022E000001F21F001002168143141E80002002A9A
:1022F000F3D100BF00BF00BF2168143151E8001FB7
:1023000021F040002168143141E80002002AF3D195
:1023100000BF202084F842000020206300BF00BFDF
:1023200021680C3151E8001F21F0100021680C31A8
:1023300041E80002002AF3D100BFE06BFEF709FC80
:1023400002206063A08DE28D801A81B22046FFF7E3
:10235000E8FE03E742E0A08DE18D401A1FFA80F805
:10236000E08DD0B3B8F1000F37D000BF00BF2168B7
:102370000C3151E8001F21F4907021680C3141E8C4
:102380000002002AF3D100BF00BF00BF2168143152
:1023900051E8001F21F001002168143141E80002DA
:1023A000002AF3D100BF202084F8420000202063DF
:1023B00000BF00BF21680C3151E8001F21F0100060
:1023C00021680C3141E80002002AF3D100BF02204D
:1023D000606341462046FFF7A4FEBFE605F080009B
:1023E00030B106F0800018B1204600F06FFDB5E670
:1023F00005F0400030B106F0400018B1204600F072
:1024000046FCABE600BFA9E6592B000810B5044610
:102410000CB9012010BDA06900B100E000BF94F824
:10242000410028B9002084F84000204600F02AF836
:10243000242084F841002068C06820F400502168FE
:10244000C860204600F0C4FC2068006920F4904079
:10245000216808612068406920F02A0021684861ED
:102460002068C06840F400502168C86000206064A3
:10247000202084F8410084F842000020606300BFFF
:10248000C8E7000010B586B0044600200290039013
:10249000049005907E49206888426CD100BF7D4839
:1024A000806940F480407B4988610846806900F477
:1024B0008040019000BF00BF00BF0846806940F027
:1024C000040088610846806900F00400019000BFA4
:1024D00000BF48150290022003900320059002A936
:1024E0006D48FEF795FE4FF4806002900020039047
:1024F000049002A96848FEF78BFE684868490860A6
:10250000002048600021664881608021C160002170
:1025100001614161202181610021C161FEF7E4FD7B
:1025200008B1FDF7E6FE00BF5D48E063446200BF0E
:102530005A4814385B490860102048600021594807
:1025400081608021C1600021016141618161C161BF
:10255000FEF7CAFD08B1FDF7CCFE00BF5148A063ED
:10256000446200BF002205212520FFF7B7F825208F
:10257000FFF7A4F889E04C49206888422ED100BFBB
:102580004448C06940F400304249C8610846C06907
:1025900000F40030019000BF00BF00BF0846806912
:1025A00040F0040088610846806900F00400019052
:1025B00000BF00BF0420029002200390032005907A
:1025C00002A93548FEF724FE08200290002003905F
:1025D000049002A93048FEF71BFE56E033492068FC
:1025E000884252D100BF2B48C06940F4802029495D
:1025F000C8610846C06900F48020019000BF00BF98
:1026000000BF0846806940F008008861084680697C
:1026100000F00800019000BF00BF081502900220E2
:1026200003900320059002A92148FEF7F1FD4FF425
:102630000060029000200390049002A91C48FEF75D
:10264000E7FD164828381B49086000204860002133
:10265000184881608021C160002101614161202111
:1026600081610021C161FEF73FFD08B1FDF741FE28
:1026700000BF1048E063446200BF0022052127200C
:10268000FFF72CF82720FFF719F806B010BD00005F
:10269000003801400010024000080140580002408C
:1026A0008C010020D0010020004400400048004080
:1026B000000C01401402002010B504460748844273
:1026C00004D10221064801F0BBFB06E00548844224
:1026D00003D10221044801F0B3FB10BDB400002077
:1026E000D02600204401002014270020F7B504461E
:1026F000154694F84100202836D1019800B10DB953
:102700000120FEBD01982062A584E584002060645C
:10271000212084F841001548A16B88621448A16B00
:10272000C8621448A16B08630020A16B486301AE26
:1027300023681A1D31682B46A06BFEF71BFD6FF056
:1027400040002168086000BF00BF2168143151E8D3
:10275000001F41F080002168143141E80002002A86
:10276000F3D100BF0020CCE70220CAE7BD2B000850
:10277000152C00086D2B000810B50446064884424D
:1027800003D1064801F093FB05E00548844202D1DD
:10279000044801F08CFB10BDB4000020D0260020BE
:1027A0004401002014270020704700BFFEE700000E
:1027B00010B50E480E4908600920486000210C48F9
:1027C0008160C1604FF4403101614FF400114161FB
:1027D0000021017641768176C17601774177FEF757
:1027E0004BF808B1FDF785FD10BD00000064004006
:1027F0008C00002008B500BF1248406940F001007D
:10280000104948610846406900F00100009000BF8F
:1028100000BF002205210D20FEF760FF0D20FEF70E
:102820004DFF002205210E20FEF758FF0E20FEF777
:1028300045FF002205210F20FEF750FF0F20FEF775
:102840003DFF08BD0010024010B5044A00210448B5
:1028500000F0ECFC0349086010BD00000C510008BA
:10286000353E00080000002000B585B00020019032
:1028700002900390049000BF2C48806940F0100043
:102880002A4988610846806900F01000009000BF66
:1028900000BF00BF0846806940F0200088610846FC
:1028A000806900F02000009000BF00BF00BF084614
:1028B000806940F0040088610846806900F00400E7
:1028C000009000BF00BF00BF0846806940F00800CC
:1028D00088610846806900F00800009000BF00BFD2
:1028E000002203211248FEF733FE00224FF47071DC
:1028F0001048FEF72DFE03200190012002900020D9
:1029000003900320049001A90948FEF781FC4FF4CD
:102910007070019001200290002003900320049029
:1029200001A90448FEF774FC05B000BD0010024088
:10293000000C01400010014010B50B480B49086025
:102940004FF4E1304860002108488160C1600161B6
:102950000C21416100218161C161FFF757FD08B180
:10296000FDF7C7FC10BD000000380140B400002096
:1029700010B50B480B4908604FF4E1304860002166
:1029800008488160C16001610C21416100218161C1
:10299000C161FFF73BFD08B1FDF7ABFC10BD0000C6
:1029A00000440040FC00002010B50B480B490860B3
:1029B0004FF4E1304860002108488160C160016146
:1029C0000C21416100218161C161FFF71FFD08B148
:1029D000FDF78FFC10BD00000048004044010020BE
:1029E00000BFFEE700BFFEE708B508490968C9084F
:1029F0004FF47A72B1FBF2F14143009100BF00BF86
:102A000000994A1E00920029F9D108BD100000204B
:102A100010B500BF502080F31188BFF34F8FBFF374
:102A20006F8F00BF02F032F918B14FF080500449A7
:102A3000086000BF002080F3118800BF10BD0000B7
:102A400004ED00E000B58FB0282105A8FDF7F3FBE9
:102A500014216846FDF7EFFB012005900004069065
:102A6000002007900120099002200C90C1030D91D5
:102A70004FF4E0110E9105A8FEF7C8FF08B1FDF76D
:102A800038FC0F20009002200190002002904FF4AB
:102A9000806003900020049002216846FEF770FEDB
:102AA00008B1FDF726FC0FB000BD704710B5024815
:102AB000FFF75DFA10BD00005802002010B5026853
:102AC000204B98420ED0204B98420BD0B0F1804F53
:102AD00008D01E4B984205D01D4B984202D01D4B8A
:102AE000984203D122F070024B681A43154B98426A
:102AF0000ED0154B98420BD0B0F1804F08D0134B3D
:102B0000984205D0124B984202D0124B984203D102
:102B100022F44072CB681A4322F080034C6943EAE6
:102B2000040202608B68C3620B688362054B9842A3
:102B300002D0054B984201D10B6903630123436125
:102B400010BD0000002C0140003401400004004092
:102B500000080040000C004070B505466C6A00207B
:102B6000E085E0842046FFF7DDFA70BD70B50646CB
:102B70000025746A20684069C0F3C01594F84100CC
:102B8000212805D125B10020E084204600F08FF8EF
:102B900020684069C0F3801594F84200222805D1CE
:102BA00025B10020E085204600F03BF8606C40F045
:102BB000100060642046FFF7B5FA70BD70B5054699
:102BC0006C6A2868006800F02000F8B90020E084F2
:102BD00000BF00BF2168143151E8001F21F08000C0
:102BE0002168143141E80002002AF3D100BF00BF80
:102BF00000BF21680C3151E8001F41F040002168FE
:102C00000C3141E80002002AF3D102E02046FFF730
:102C1000B3FD70BD70B50446656A2846FFF7C4FD74
:102C200070BD00BF00BF02680C3252E8002F22F4D2
:102C3000907102680C3242E80013002BF3D100BF00
:102C400000BF00BF0268143252E8002F22F00101D9
:102C50000268143242E80013002BF3D100BF016B6D
:102C600001290ED100BF00BF02680C3252E8002FCC
:102C700022F0100102680C3242E80013002BF3D15D
:102C800000BF202180F8421000210163704710B579
:102C900004462068C06820F040002168C8602020F9
:102CA00084F841002046FFF767FD002010BD00BFFB
:102CB00000BF02680C3252E8002F22F0C001026807
:102CC0000C3242E80013002BF3D100BF202180F822
:102CD00041107047F8B5044694F84200222875D197
:102CE000A068B0F5805F0CD1206950B90025A66AB4
:102CF00020684068C0F308003080A06A801CA06291
:102D000015E0A56A0026A068B0F5805F03D0A06832
:102D100028B9206918B920684068287004E0206844
:102D2000406800F07F002870A06A401CA062E08D1F
:102D3000401E80B2E085002846D12068C06820F09F
:102D400020002168C8602068C06820F48070216875
:102D5000C8602068406920F0010021684861202097
:102D600084F8420000206063206B012826D10020F7
:102D7000206300BF00BF21680C3151E8001F21F023
:102D8000100021680C3141E80002002AF3D100BF95
:102D90002068006800F0100010280AD100BF002051
:102DA000009020680068009020684068009000BF94
:102DB00000BFA18D2046FFF7B4F902E02046FFF7DF
:102DC0007BFC0020F8BD01E00020FBE70220F9E7D2
:102DD00070B504462168096921F44051E268114345
:102DE000226811612269A1681143626941EA020502
:102DF0002168C96841F20C62914329432268D1607D
:102E00002168496921F44071A26911432268516126
:102E10002D4A2168914202D1FEF7B0FD01E0FEF794
:102E20009DFD00EBC00101EB001162689200B1FB57
:102E3000F2F100EBC00202EB001263689B00B2FBF0
:102E4000F3F26423B2FBF3F202EBC20303EB0212D0
:102E5000A1EB8201322202EB01116422B1FBF2F1FB
:102E600001F0F00100EBC00202EB001263689B006E
:102E7000B2FBF3F26423B2FBF3F201EB021200EBBC
:102E8000C00101EB001163689B00B1FBF3F100EBA3
:102E9000C00303EB00136668B600B3FBF6F36426C9
:102EA000B3FBF6F303EBC30606EB0313A1EB8301BD
:102EB000322303EB01116423B1FBF3F101F00F01A5
:102EC00011442268916070BD00380140014691F8BC
:102ED0004100212828D18868B0F5805F0BD10869AE
:102EE00048B90A6A1088C0F308000B685860086A7D
:102EF000801C086205E00B6A581C086218780B6891
:102F00005860C88C401E80B2C88458B90868C06830
:102F100020F080000B68D8600868C06840F040006E
:102F20000B68D860002070470220FCE710B502480B
:102F3000FFF7FAF810BD0000B400002010B50248F9
:102F4000FFF7F2F810BD00004401002010B5024860
:102F5000FDF76BFB10BD00008C00002010B502488F
:102F6000FDF763FB10BD00008C00002000BFFEE7F2
:102F700002480068C0F30220704700000CED00E03A
:102F800010B5002804DB0A07130E054A135406E0A7
:102F90000A07140E034A00F00F031B1FD45410BD80
:102FA00000E400E018ED00E0EFF311807047EFF36C
:102FB00005807047EFF31080704702E008C8121FC9
:102FC00008C1002AFAD170477047002001E001C112
:102FD000121F002AFBD1704730B58BB0044600BFEA
:102FE00000BFEFF31080054600BF72B600BF201D82
:102FF00000F04EF808BB1AE02068FDF7FBFA98B124
:1030000007A9201D00F025F8079801909DF82000E1
:1030100005900020039004906B460DF1210201A958
:103020002068FDF769F902E0002084F82800201DDF
:1030300000F02EF80028DFD002E0002084F82800FD
:1030400000BF00BF85F3108800BF00BF00BF0BB0FA
:1030500030BD70B504460D46E06810B94FF0FF3042
:1030600070BD61686069884201D920686061284646
:10307000D4E90421FDF7C6F8D4E9041008446061DE
:10308000A068401CA060E068401EE0600020E7E708
:103090000146C86808B9012070470020FCE72DE907
:1030A000F04704460F4615461FB94FF0FF30BDE804
:1030B000F087E06808B90020F9E700BF72B600BFEA
:1030C000E06820B900BF62B600BF0020EFE761688A
:1030D0002069884201D920682061E068A84201DDAA
:1030E000284600E0E068054621696068401A461CF1
:1030F000AE4209DB2E46324638462169FDF782F89A
:103100002069304420610EE0A5EB060932463846BE
:103110002169FDF777F8B8194A462168FDF772F87A
:10312000206848442061A0682844A060E068401BF3
:10313000E060A84600BF62B600BF4046B7E7FEF7B2
:103140001FFAFFF77FFCFFF78FFBFFF753FBFFF73B
:10315000F3FBFFF70DFCFFF727FCFFF729FB00F05F
:1031600023F8FFF771FB00F03FF800BFFEE7000017
:1031700070B50546FFF71BFF48B9FFF71BFF30B9D5
:1031800008480068022805D1FFF70EFF10B16FF064
:10319000050404E0002415B1284601F029F8204672
:1031A00070BD00006400002010B5FFF700FF48B9B3
:1031B000FFF700FF30B90B480068022805D1FFF780
:1031C000F3FE10B16FF0050409E00648006820B96D
:1031D000012004490860002401E04FF0FF3420463C
:1031E00010BD00006400002010B5FFF7E0FE48B9F4
:1031F000FFF7E0FE30B90C480068022805D1FFF760
:10320000D3FE10B16FF005040CE0074800680128F8
:1032100006D102200449086001F066F8002401E0AC
:103220004FF0FF34204610BD640000202DE9F04728
:1032300086B080468946144600200490FFF7B7FE0A
:1032400000285DD1FFF7B6FE002859D12D4800684F
:10325000022803D1FFF7A8FE002851D1B8F1000FD2
:103260004ED080261825002005900DF1140A471E27
:1032700044B3206808B1D4F800A0A06900B1A569E2
:103280002DB1382D03D8207900F0010018B10020AD
:1032900006B0BDE8F087606908B160698608A0687B
:1032A00040B1E0685C2805D3206918B1606908B1B5
:1032B000012708E0A06830B9E06820B9206910B99A
:1032C000002700E00027012F0CD12169A0684B46A0
:1032D0003246CDE9005102905146404601F064FC6F
:1032E00004900DE067B904A8B2B24B465146CDE94F
:1032F0000050404601F026FC012801D00020049037
:103300000498C5E7640000202DE9F04105460E460B
:103310001648076816480068001D00F0E8FD681CA4
:1033200038B936B112480168091D124800F036FE5E
:103330001AE07C190E4800684460BC4207D20C4871
:103340000168091D0C48006800F00EFE0CE00848FA
:103350000168091D0948006800F006FE0848006879
:10336000844201D206480460BDE8F08128000020B4
:1033700014000020482C00201C0000201800002011
:103380004400002010B5044600F014FE24480068F4
:10339000401C234908602348006840B92148046064
:1033A0000846006801280DD100F0F8F90AE01E482F
:1033B000006838B91B480068C06AE16A884201D8D1
:1033C0001848046019480068401C184908600846FD
:1033D000006860641649E06A0968884202D91449A5
:1033E000E06A0860E16A01EB8101124A02EB8100A8
:1033F000211D00F0D3FD00F007FE0B48006868B106
:1034000008480068C06AE16A884207D24FF08050DD
:1034100009490860BFF34F8FBFF36F8F10BD0000E5
:103420002400002014000020300000204000002074
:103430002C0000209827002004ED00E008B500F0E3
:10344000B9FD12480068E8B9114800F07DFD114847
:1034500000F07AFD0E48104908600E480F490860D8
:1034600000200F4B0F4A102100900A2001F064F851
:10347000064908600846006820B10BA103480068AF
:1034800000F07AFE00F0C0FD08BD000058000020EA
:103490005C2C0020702C00205000002054000020E4
:1034A000842C0020D42C0020546D725100000000A8
:1034B00010B516E000F07EFD0C48C068C468201D01
:1034C00000F015FD0A480068401E094908600948D7
:1034D0000068401E0749086000F096FD204600F095
:1034E0005EF8044800680028E4D110BD342C0020A8
:1034F000240000202000002070B504460D46206CFA
:1035000070B1216CE0680844E0606168E06888425E
:1035100001D32068E0602846226CE168FCF772FE67
:1035200070BD2DE9F04104460F4615464FF00008E6
:10353000A66B206C40B9206860BB606801F048FC55
:1035400080460020606025E07DB93946226CA06885
:10355000FCF758FE216CA0680844A060D4E9011073
:10356000884217D32068A06014E03946226CE068D6
:10357000FCF748FE216CE068401AE0602168E068D2
:10358000884203D2216C6068401AE060022D01D1AC
:1035900006B1761E701CA0634046BDE8F08110B5F0
:1035A000044694F8590030B9206B00F04BFD2046DA
:1035B00000F048FD1AE094F85900012803D1204694
:1035C00000F040FD12E094F85900022801D10120DA
:1035D00000E0002050B900BF502080F31188BFF3F5
:1035E0004F8FBFF36F8F00BF00BFFEE710BD00001D
:1035F0000146084A126812680AB9012200E0002256
:103600000A600A6822B9034A1268D268106800E0AA
:10361000002070475000002030B54FF42053174869
:1036200000F007042CB1C01D20F00700134C041B50
:103630001B1B0246124C22600024114D6C60D018F6
:10364000083820F007000F4C206000240D4D2D6835
:103650006C600C4D2D682C601146441A4C60094C6E
:1036600024680C60084D4C682C60084D4C682C6038
:103670004FF00044064D2C6030BD00002C3400207B
:1036800068000020700000207800002074000020F6
:103690007C00002000BFFFF70BFF064800680128F0
:1036A000F9D94FF0805004490860BFF34F8FBFF342
:1036B0006F8FF0E79827002004ED00E02DE9F0413E
:1036C00006460D4617469846069C0DB9246000E054
:1036D0002760E66325640121204600F09DFF84F801
:1036E0004C80BDE8F0812DE9F05F82460F469046A0
:1036F0009B460A9E0C9C4FEA8801A522206BFCF792
:1037000093FDA8F10100216B01EB800929F0070965
:1037100009F0070008B9012000E0002050B900BFFF
:10372000502080F31188BFF34F8FBFF36F8F00BF1E
:1037300000BFFEE7002507E0795D04F13400415544
:10374000785D00B902E06D1C102DF5D300BF00219B
:1037500043200155382E00D33726E662E664002068
:103760002065201D00F0FDFB04F1180000F0F9FBBE
:103770002461C6F13800A06164620020606584F8AD
:1037800058005A465146484600F042FB20600B98CC
:1037900008B10B980460BDE8F09F000010B500244C
:1037A00007E004EB84010F4A02EB810000F0CCFB40
:1037B000641C382CF5D30C4800F0C6FB0B4800F015
:1037C000C3FB0B4800F0C0FB0A4800F0BDFB0A48F1
:1037D00000F0BAFB04480949086004480849086039
:1037E00010BD000098270020F82B00200C2C002092
:1037F000202C0020342C0020482C00201800002011
:103800001C00002010B50146164800E0006803685F
:103810008B42FBD30246436813448B4204D1436876
:103820004C682344436001460A464B6813440468CD
:10383000A34211D10C4C03682468A34208D04B6802
:103840000468646823444B6003681B680B6005E0F0
:10385000054B1B680B6001E003680B60884200D0D9
:10386000016010BD68000020700000202DE9F041CB
:1038700004460D4616461F464FF000086560246159
:10388000B5420CD8F01BA169884202D34FF0010861
:1038900011E0211D0948006800F066FB0BE0BE4204
:1038A00004D2BD4202D34FF0010804E0211D0448B8
:1038B000006800F059FB4046BDE8F081540000204C
:1038C0005000002070B5054600F074FBA86B08B9E5
:1038D000012400E0002400F097FB204670BD70B585
:1038E000054600F067FBA86BE96B884201D1012413
:1038F00000E0002400F088FB204670BDF8B50546C6
:103900000F4616480068C068C468201D00F0EFFA32
:10391000E06901281DD1A06941192B463A4620468D
:10392000FFF7A4FFA8B1002003462A4601460090F5
:10393000204601F0A9FB064656B900BF502080F38F
:103940001188BFF34F8FBFF36F8F00BF00BFFEE73B
:1039500000BF2046616A8847F8BD00005000002083
:10396000F0B587B082E00398002811DA04AE56B9AA
:1039700000BF502080F31188BFF34F8FBFF36F8FCC
:1039800000BF00BFFEE7D6E90020B168904700BF46
:10399000039800286ADB059C606908B9012000E0F3
:1039A000002010B9201D00F0A2FA02A800F0C0F813
:1039B000054603980A2857D2DFE800F009050731C9
:1039C000334F0608323400BF00BF00BF00BF049869
:1039D000A269811803462A462046FFF747FFE8B14F
:1039E0002046616A8847E069012817D100200090CD
:1039F0000498A169421800231946204601F044FBAF
:103A0000074657B900BF502080F31188BFF34F8F8E
:103A1000BFF36F8F00BF00BFFEE700BF25E000BF10
:103A200023E000BF0498A061A06908B1012000E074
:103A3000002050B900BF502080F31188BFF34F8F92
:103A4000BFF36F8F00BF00BFFEE7A06941192B468F
:103A50002A462046FFF70AFF07E094F82C0010B929
:103A6000204600F0EFFA00E000BF00BF002203A9EB
:103A70000448006800F06CFF00287FF474AF07B0C2
:103A8000F0BD000058000020F8B505460C4600F0D7
:103A900087FC684600F04CF80646009820BB44B905
:103AA000B54206D801F032FA31462846FFF726FF24
:103AB0001CE03CB10E480068006808B9012000E035
:103AC00000200446A91B22460A48006800F06AFB51
:103AD00001F01CFA50B94FF0805007490860BFF35D
:103AE0004F8FBFF36F8F01E001F010FAF8BD0000B7
:103AF000540000205800002004ED00E00A49096845
:103B0000096809B9012100E0002121B14FF0FF311E
:103B1000064A116006E004490968C968C868034A92
:103B20004168116070470000180000204400002028
:103B300070B5044601F0A4F80546074800688542C0
:103B400004D200F00BF80120206001E0002020608A
:103B500001480560284670BD600000202DE9F8434B
:103B600032E024480068C068056822480068C068E0
:103B7000C468201D00F0BBF92046616A8847E069EF
:103B8000012821D1A0694619AE4207D96660246197
:103B9000211D1848006800F0E7F915E000200346F1
:103BA0002A4601460090204601F06EFA074657B9B2
:103BB00000BF502080F31188BFF34F8FBFF36F8F8A
:103BC00000BF00BFFEE700BF0A480068006808B9F0
:103BD000012000E000200028C3D00648D0F8008073
:103BE00005480068034908600348C0F80080BDE844
:103BF000F883000050000020540000200E480068A8
:103C0000401C08B9012000E0002050B900BF50203E
:103C100080F31188BFF34F8FBFF36F8F00BF00BFDA
:103C2000FEE700BF502080F31188BFF34F8FBFF332
:103C30006F8F00BF00BFFEE78000002008B500BF07
:103C40006846FFF7D5FC044620460099FFF71CFFA5
:103C5000FFF786FEF4E770B5044600F0ABF994F97F
:103C6000455010E0606A08B9012000E0002038B932
:103C700004F1240001F0FEF818B100F0F3FA00E0BE
:103C800003E0681E45B2002DECDC00BFFF2084F885
:103C9000450000F0B9F900F08DF994F9445010E0B6
:103CA000206908B9012000E0002048B904F11000A3
:103CB00001F0E0F808B100F0D5FA681E45B200E066
:103CC00001E0002DECDC00BFFF2084F8440000F090
:103CD0009BF970BD2DE9F04104464FF0000800F05B
:103CE0005FFB4648006808B9FFF796FC4448006847
:103CF000204000286BD1D4B1083404F00700B0B1E3
:103D000004F00700C0F10800044404F0070008B9FB
:103D1000012000E0002050B900BF502080F311883E
:103D2000BFF34F8FBFF36F8F00BF00BFFEE7002CC4
:103D30004DD034480068844249D8334E3046056837
:103D400001E02E462D686868A04202D2286800284B
:103D5000F7D12A480068854239D0306800F1080858
:103D6000286830606868001B102819D92F1907F0DF
:103D7000070008B9012000E0002050B900BF502022
:103D800080F31188BFF34F8FBFF36F8F00BF00BF69
:103D9000FEE76868001B78606C603846FFF732FD0C
:103DA000184968680968081A1649086008460068D2
:103DB00016490968884203D212480068134908600E
:103DC0000F4968680968084368600020286001F0AE
:103DD0009DF808F0070008B9012000E0002050B964
:103DE00000BF502080F31188BFF34F8FBFF36F8F58
:103DF00000BF00BFFEE74046BDE8F0817000002034
:103E00007C00002074000020680000207800002062
:103E1000001F4FF080730360001F21F00103036057
:103E2000001F034B03601438026020387047000005
:103E3000FD3B000810B500BF0120FFF799F9FBE733
:103E40002DE9F84F04460D4600270026002000907B
:103E5000B4F81080D4F80C906068006840681FFACD
:103E600080FA1DB92089A0EB0A0087B2012D03D189
:103E7000208900EBD0714F10022D00D12789208AB4
:103E8000381A86B2606940B109EB080B31465846D2
:103E90006269904780B2009000BF208A3044218937
:103EA00090FBF1F201FB12002082BDE8F88F70B5A3
:103EB000044600250026A08D85B2A5B1A08BA8429E
:103EC00001DD2E4600E0A68B324604F12000A169F8
:103ED000FFF7E5F8012084F842003246A169206826
:103EE000FEF704FC02E0002084F8420070BD0146A9
:103EF0000A69D1E901309860D1E90103586050683E
:103F0000884201D188685060002008611068401E16
:103F10001060106870470000034B0360034B0B6098
:103F20008023136070470000742D0020D02D0020E6
:103F3000034B0360034B0B604FF4807313607047B7
:103F4000D02F00202C30002000F1080141604FF0FC
:103F5000FF31816000F10801C16001610021016051
:103F6000704700210161704710B502460B685C1C68
:103F70000CB9106907E002F1080000E040684468ED
:103F800024689C42FAD944684C604C68A1608860FF
:103F900041600A611468641C146010BD42684A6084
:103FA00093688B60936859609160086103685B1C3B
:103FB0000360704700BF502080F31188BFF34F8F1C
:103FC000BFF36F8F00BF0E480068401C0C490860AB
:103FD00008460068012812D10A480068C0B208B932
:103FE000012000E0002050B900BF502080F311886C
:103FF000BFF34F8FBFF36F8F00BF00BFFEE7704767
:104000008000002004ED00E00D48006850B900BFBA
:10401000502080F31188BFF34F8FBFF36F8F00BF25
:1040200000BFFEE706480068401E054908600846D4
:10403000006820B9002080F3118800BF00BF7047DE
:104040008000002070B506463546002E3FD0083D62
:104050002C461F4960680968084008B1012000E04B
:10406000002050B900BF502080F31188BFF34F8F5C
:10407000BFF36F8F00BF00BFFEE7206808B90120C3
:1040800000E0002050B900BF502080F31188BFF33A
:104090004F8FBFF36F8F00BF00BFFEE70C49606812
:1040A0000968084098B1206888B9094960680968BA
:1040B0008843606000F074F9064960680968084444
:1040C000044908602046FFF79DFB00F01FFF70BD0C
:1040D0007C0000207400002000204FF0E0210861E7
:1040E0008861064800684FF47A71B0FBF1F0401E19
:1040F0004FF0E02148610720086170471000002060
:1041000070B5FCF769F80446102C16D304F1E020D2
:1041100090F8F05315480078854201DB012000E05B
:10412000002050B900BF502080F31188BFF34F8F9B
:10413000BFF36F8F00BF00BFFEE70D48006800F4BB
:10414000E0600C490968884201D8012000E00020A5
:1041500050B900BF502080F31188BFF34F8FBFF3D9
:104160006F8F00BF00BFFEE770BD0000840000201D
:104170000CED00E088000020024600200BE0084B18
:1041800053F8303033B9064B43F8301003EBC0031B
:104190005A6002E0401C0828F1D300BF70470000BD
:1041A000582700202DE9F04105460E4617462C46BB
:1041B000FFF700FF94F94400401C10B9002084F878
:1041C000440094F94500401C10B9002084F84500D3
:1041D000FFF71AFFA06B28B93A46314604F12400D4
:1041E00000F062F82046FFF736FDBDE8F0810000E0
:1041F00070B504460025D4B11248006808B9012002
:1042000000E0002050B900BF502080F31188BFF3B8
:104210004F8FBFF36F8F00BF00BFFEE700F0C0F805
:1042200000212046FFF770F800F070FE05463DB90A
:104230004FF0805004490860BFF34F8FBFF36F8F7A
:1042400070BD00004C00002004ED00E00349096847
:104250000160034909684160704700003C0000208C
:104260002800002001200149086070473800002024
:1042700070B504460D4654B900BF502080F3118834
:10428000BFF34F8FBFF36F8F00BF00BFFEE705483E
:10429000016818312046FFF767FE01212846FFF725
:1042A00033F870BD1400002070B505460E46144664
:1042B00055B900BF502080F31188BFF34F8FBFF373
:1042C0006F8F00BF00BFFEE706480168183128461F
:1042D000FFF764FE0CB14FF0FF3621463046FFF782
:1042E00013F870BD1400002010B586B000200590B2
:1042F000049003AA04A905A8FFF70EFE0022DDE939
:1043000004101346CDE9002102901EA11F48039A14
:1043100000F04AFC1E4908600846006808B1012404
:1043200000E00024012C02D100F072FE0446012CB2
:1043300015D100BF502080F31188BFF34F8FBFF31A
:104340006F8F00BF4FF0FF30124908600120124903
:10435000086000201149086000F072F810E0601C4D
:1043600008B1012000E0002050B900BF502080F3C8
:104370001188BFF34F8FBFF36F8F00BF00BFFEE701
:1043800006B010BD49444C450000000095360008B9
:1043900048000020440000203000002028000020B9
:1043A00002480068401C0149086070474C0000202A
:1043B0001E48006818B101201D49086034E0002043
:1043C0001B4908601B4801680CE051B900BF502030
:1043D00080F31188BFF34F8FBFF36F8F00BF00BF13
:1043E000FEE7491E01EB8100134A52F8200008B98C
:1043F000012000E000200028E7D101EB81020E4BF4
:1044000003EB820042685268426000F10802436890
:10441000934202D14268526842604268D268074BB8
:104420001A600448016000BF704700004C00002083
:10443000380000202C0000209827002014000020C5
:104440001CB53849084600780190FF200A461070D4
:104450000846007800909DF8000000F0F0009DF8FC
:104460000020904201D1012000E0002050B900BF9F
:10447000502080F31188BFF34F8FBFF36F8F00BFC1
:1044800000BFFEE79DF8000000F05000264A1070C3
:104490000720264A106009E024480068401E234A8D
:1044A00010609DF800004006000E00909DF800008E
:1044B00000F080008028EFD01C480068C0F10700A1
:1044C000042801D1012000E0002050B900BF502095
:1044D00080F31188BFF34F8FBFF36F8F00BF00BF12
:1044E000FEE7124800680002104A1060104600887B
:1044F00000F4E06010600B4A019810700C480068EE
:1045000040F470000A4908600846006840F07040B6
:104510000860FFF7E1FD002006490860FBF726FE72
:1045200000201CBD00E400E0840000208800002082
:1045300020ED00E0800000202DE9F84380460E4683
:1045400017461D46DDF82090B8F1000F01D001207C
:1045500000E0002050B900BF502080F31188BFF365
:104560004F8FBFF36F8F00BF00BFFEE70DB101207B
:1045700000E0002050B900BF502080F31188BFF345
:104580004F8FBFF36F8F00BF00BFFEE707B10EB1C3
:10459000012000E0002050B900BF502080F31188B6
:1045A000BFF34F8FBFF36F8F00BF00BFFEE707B9A8
:1045B0000EB9012000E0002050B900BF502080F368
:1045C0001188BFF34F8FBFF36F8F00BF00BFFEE7AF
:1045D000502000900098502801D1012000E00020D8
:1045E00050B900BF502080F31188BFF34F8FBFF345
:1045F0006F8F00BF00BFFEE72C464CB1012084F84E
:1046000046004B463A46314640460094FFF756F87E
:104610002046BDE8F883000070B505460E462C46DE
:1046200054B900BF502080F31188BFF34F8FBFF300
:104630006F8F00BF00BFFEE7FFF7BCFCD4E90F128D
:10464000206801FB020060600020A0632068A06079
:10465000E06B401E226C216800FB0210E060FF202E
:1046600084F8440084F845009EB9206908B9012007
:1046700000E00020A8B904F1100000F0FBFB80B1BD
:104680004FF0805009490860BFF34F8FBFF36F8F21
:1046900007E004F11000FFF757FC04F12400FFF7D6
:1046A00053FCFFF7B1FC012070BD000004ED00E0F9
:1046B0002DE9FF4383B0064688461D464FF00009AA
:1046C000344654B900BF502080F31188BFF34F8F98
:1046D000BFF36F8F00BF00BFFEE7B8F1000F01D13D
:1046E000206C08B9012000E0002050B900BF502024
:1046F00080F31188BFF34F8FBFF36F8F00BF00BFF0
:10470000FEE7022D02D1E06B012801D1012000E07B
:10471000002050B900BF502080F31188BFF34F8FA5
:10472000BFF36F8F00BF00BFFEE700F099FA08B932
:10473000059808B9012000E0002050B900BF5020C2
:1047400080F31188BFF34F8FBFF36F8F00BF00BF9F
:10475000FEE700BFFFF72EFCA06BE16B884201D3A0
:10476000022D28D12A4641462046FEF7DAFE0746AA
:10477000606A08B9012000E0002068B904F1240053
:1047800000F078FB88B14FF0805032490860BFF3E9
:104790004F8FBFF36F8F08E03FB14FF080502D492E
:1047A0000860BFF34F8FBFF36F8FFFF72DFC012021
:1047B00007B0BDE8F083059818B9FFF725FC002085
:1047C000F6E7B9F1000F04D101A8FFF73FFD4FF064
:1047D0000109FFF719FCFFF7E3FDFFF7EBFB94F985
:1047E0004400401C10B9002084F8440094F94500AE
:1047F000401C10B9002084F84500FFF705FC05A90E
:1048000001A800F059F9F0B92046FFF768F8A0B107
:1048100004F110000599FFF72BFD2046FFF71BFA66
:1048200000F074FB002895D14FF0805009490860D2
:10483000BFF34F8FBFF36F8F8CE72046FFF70BFA64
:1048400000F064FB86E72046FFF705FA00F05EFB08
:104850000020ADE704ED00E02DE9F05F07468A4651
:1048600090461E463C4654B900BF502080F3118844
:10487000BFF34F8FBFF36F8F00BF00BFFEE7BAF1EA
:10488000000F01D1206C08B9012000E0002050B9D0
:1048900000BF502080F31188BFF34F8FBFF36F8F9D
:1048A00000BF00BFFEE7022E02D1E06B012801D15C
:1048B000012000E0002050B900BF502080F3118893
:1048C000BFF34F8FBFF36F8F00BF00BFFEE7FFF74F
:1048D00017FC00BF5021EFF3118081F31188BFF363
:1048E0004F8FBFF36F8F00BF0546A06BE16B88420F
:1048F00001D3022E23D194F945B0324651462046C9
:10490000FEF70FFE0BF1010088B9606A08B90120BB
:1049100000E0002080B904F1240000F0ABFA58B1A7
:10492000B8F1000F08D00120C8F8000004E00BF136
:10493000010040B284F845004FF0010901E04FF05A
:10494000000900BF85F3118800BF4846BDE8F09F0D
:104950002DE9F74183B005460E464FF000082C467E
:1049600054B900BF502080F31188BFF34F8FBFF3BD
:104970006F8F00BF00BFFEE70EB9206C08B90120A1
:1049800000E0002050B900BF502080F31188BFF331
:104990004F8FBFF36F8F00BF00BFFEE700F060F9DD
:1049A00008B9059808B9012000E0002050B900BFFF
:1049B000502080F31188BFF34F8FBFF36F8F00BF7C
:1049C00000BFFEE700BFFFF7F5FAA76BF7B131466E
:1049D0002046FEF791FD781EA063206908B90120EA
:1049E00000E0002060B904F1100000F043FA38B193
:1049F0004FF080502F490860BFF34F8FBFF36F8F88
:104A0000FFF702FB012006B0BDE8F081059818B958
:104A1000FFF7FAFA0020F6E7B8F1000F04D101A879
:104A2000FFF714FC4FF00108FFF7EEFAFFF7B8FCB0
:104A3000FFF7C0FA94F94400401C10B9002084F834
:104A4000440094F94500401C10B9002084F845004A
:104A5000FFF7DAFA05A901A800F02EF8F0B9204610
:104A6000FEF730FFA0B104F124000599FFF700FC28
:104A70002046FFF7F0F800F049FA0028A3D14FF0E4
:104A800080500C490860BFF34F8FBFF36F8F9AE7D8
:104A90002046FFF7E0F800F039FA94E72046FFF7E8
:104AA000DAF800F033FA2046FEF70CFF00288AD02F
:104AB0000020A8E704ED00E070B505460C4655B9A6
:104AC00000BF502080F31188BFF34F8FBFF36F8F6B
:104AD00000BF00BFFEE754B900BF502080F311882B
:104AE000BFF34F8FBFF36F8F00BF00BFFEE7FFF72D
:104AF00061FA124802686868131A2068401C08B9F5
:104B0000002617E00E4928680968884204D06868C2
:104B1000904201D801260DE02068984207D920680C
:104B2000C01A20602846FFF791FB002602E0002013
:104B300020600126FFF768FA304670BD280000208B
:104B40003C0000202DE9FF4F85B08046894617467E
:104B5000DDE912ABB800FFF7BDF8064656B15C20A0
:104B6000FFF7B8F804460CB1266304E03046FFF7BF
:104B700069FA00E000248CB1002084F85900CDE9E6
:104B800000ABCDE902403A4649464046089BFEF755
:104B9000AAFD2046FEF7F6FB012501E04FF0FF35A8
:104BA000284609B0BDE8F08F2DE9F04F85B00746E3
:104BB000884691469A46DDE90EB6109C0EB101205A
:104BC00000E0002050B900BF502080F31188BFF3EF
:104BD0004F8FBFF36F8F00BF00BFFEE70CB1012006
:104BE00000E0002050B900BF502080F31188BFF3CF
:104BF0004F8FBFF36F8F00BF00BFFEE75C200390B5
:104C000003985C2801D1012000E0002050B900BFCA
:104C1000502080F31188BFF34F8FBFF36F8F00BF19
:104C200000BFFEE7B4B1AEB125462C462E6302208C
:104C300085F85900002004A953464A46CDE900B141
:104C4000CDE9025041463846FEF74DFD2846FEF7B5
:104C500099FB01E000200490049805B0BDE8F08FB6
:104C60000549096809B9012005E00449096809B93D
:104C7000022000E000207047300000204C0000209F
:104C80000149086870470000280000202DE9F04124
:104C90004FF0000843480068002876D14248006879
:104CA000451C4148056015BB40480068006808B9CC
:104CB000012000E0002050B900BF502080F311888F
:104CC000BFF34F8FBFF36F8F00BF00BFFEE73748C2
:104CD0000768374800683549086035480760354837
:104CE0000068401C33490860FEF708FF00BF3248E7
:104CF000006885423BD300BF2C480068006808B9B3
:104D0000012000E0002020B14FF0FF302A49086068
:104D10002CE026480068C068C4686668B54202D2C4
:104D20002548066022E0201DFFF7E1F8A06A18B1CF
:104D300004F11800FFF7DBF82049E06A09688842AF
:104D400002D91E49E06A0860E16A01EB81011C4A50
:104D500002EB8100211DFFF721F91A49E06A096879
:104D6000C96A8842C8D34FF00108C5E700BF15489B
:104D70000068C06A00EB8000114951F8200001284A
:104D800001D94FF0010805E0FFE70F480068401C1B
:104D90000D4908600D48006808B14FF00108404611
:104DA000BDE8F0814C000020280000201800002001
:104DB0001C0000203C000020440000202C000020AB
:104DC0009827002014000020340000203800002024
:104DD00070B505462C460026002D43D022480068B9
:104DE000844201D1012000E0002050B900BF5020D2
:104DF00080F31188BFF34F8FBFF36F8F00BF00BFE9
:104E0000FEE7206D50B900BF502080F31188BFF33A
:104E10004F8FBFF36F8F00BF00BFFEE7206D401EB6
:104E20002065E16CE06A88421CD0206DD0B9201D5D
:104E3000FFF75DF8E06CE062E06AC0F13800A06165
:104E40000A49E06A0968884202D90849E06A0860AC
:104E5000E16A01EB8101064A02EB8100211DFFF7A7
:104E60009DF80126304670BD140000202C00002063
:104E70009827002070B50646F068C46854B900BF92
:104E8000502080F31188BFF34F8FBFF36F8F00BFA7
:104E900000BFFEE704F11800FFF729F81548006885
:104EA000A0B9201DFFF723F81349E06A096888427A
:104EB00002D91149E06A0860E16A01EB81010F4AF9
:104EC00002EB8100211DFFF769F804E004F11801ED
:104ED0000B48FFF763F80B49E06A0968C96A884222
:104EE00004D9012501200849086000E00025284672
:104EF00070BD00004C0000202C00002098270020EE
:104F0000202C0020140000203800002070B5002460
:104F100000263648006850B900BF502080F3118841
:104F2000BFF34F8FBFF36F8F00BF00BFFEE7FFF7E8
:104F300041F82E480068401E2C4908600846006869
:104F400000284ED12A48006800284AD023E029488A
:104F5000C068C46804F11800FEF7C9FF201DFEF701
:104F6000C6FF2549E06A0968884202D92249E06AF9
:104F70000860E16A01EB8101204A02EB8100211DFA
:104F8000FFF70CF81E49E06A0968C96A884202D333
:104F900001201C4908601748006808B9012000E09A
:104FA00000200028D3D00CB1FEF7A8FD16480568F4
:104FB00065B100BFFFF76AFE10B10120114908601A
:104FC0006D1E002DF6D100200F4908600D480068C5
:104FD00038B1012630070D490860BFF34F8FBFF38A
:104FE0006F8FFFF711F8304670BD00004C000020B5
:104FF00024000020202C00202C00002098270020D6
:1050000014000020380000203400002004ED00E0EF
:1050100010B586B00024FEF711FA16480068D0B12A
:1050200000200590049003AA04A905A8FEF780FFBC
:105030000222DDE904100023CDE9002102900EA137
:105040000F48039AFFF7B0FD0E4908600846006854
:1050500000B1012400BF54B900BF502080F3118873
:10506000BFF34F8FBFF36F8F00BF00BFFEE7204637
:1050700006B010BD58000020546D722053766300B6
:105080003D3C00085C0000202DE9FF4704460D462A
:1050900016461F46DDF830804FF0000954B900BFB6
:1050A000502080F31188BFF34F8FBFF36F8F00BF85
:1050B00000BFFEE71448006810B300950196029403
:1050C000062D15DAFFF7CCFD022808D10023424651
:1050D00069460D480068FFF7EBFA814610E00023AF
:1050E0001A46694608480068FFF7E2FA814607E079
:1050F00000233A46694604480068FFF7ADFB814645
:10510000484604B0BDE8F087580000205C51000814
:10511000000000000000000000000000000000008F
:10512000000800001800000000000000000000005F
:1051300002030405060708090A0B0C0D0E0F1010D8
:105140000102000000000000000001020304060745
:105150000809000000000102030400007379737461
:10516000656D5F7365727669636500008C51000838
:10517000000000208C000000BA2F00081852000820
:105180008C000020A45F0000CA2F0008000000006F
:105190000000000010000000010000000024F400E6
:1051A00000000000000000000000000000000000FF
:1051B00000000000000000000000000000000000EF
:1051C00000000000000000000000000000000000DF
:1051D00000000000000000000000000000000000CF
:1051E00000000000000000000000000000000000BF
:1051F00000000000000000000000000000000000AF
:10520000000000000000000000000000AAAAAAAAF6
:08521000000000000000000096
:0400000508000131BD
:00000001FF
