:020000040800F2
:1000000028610020E1010008F52F0008BB2D000841
:10001000F12F0008AD070008853700080000000038
:10002000000000000000000000000000490100087E
:100030002D080008000000008D0100082130000894
:10004000FB010008FB010008FB010008FB010008A0
:10005000FB010008FB010008FB010008FB01000890
:10006000FB010008FB010008FB010008FB01000880
:10007000FB010008D1070008E1070008F1070008AC
:10008000FB010008FB010008FB01000865370008C0
:1000900075370008B1070008C1070008FB01000818
:1000A000FB010008FB010008FB010008FB01000840
:1000B000FB010008FB010008FB010008FB01000830
:1000C000FB010008FB010008FB010008FB01000820
:1000D000FB01000845370008FB0100085537000800
:1000E000FB010008FB010008FB010008FB01000800
:1000F000FB010008FB010008FB010008FB010008F0
:10010000FB010008FB010008FB010008FB010008DF
:10011000FB010008FB010008FB010008BD300008DE
:10012000FB010008FB010008FB010008FB010008BF
:10013000DFF810D000F028FB0048004757480008BF
:10014000AFF3008028610020224B19680868B0E8EE
:10015000F00F80F30988BFF36F8F4FF0000080F33A
:1001600011884EF00D0E7047000000000648006830
:10017000006880F3088862B661B6BFF34F8FBFF3A3
:100180006F8F00DF00BF00BF08ED00E0EFF30980D4
:10019000BFF36F8F0F4B1A6820E9F00F106008B59E
:1001A0004FF0500080F31188BFF34F8FBFF36F8F74
:1001B00005F086FE4FF0000080F31188BDE808408E
:1001C00019680868B0E8F00F80F30988BFF36F8FF3
:1001D000704700BF54000020EFF305807047000017
:1001E0000648804706480047FEE7FEE7FEE7FEE7D1
:1001F000FEE7FEE7FEE7FEE7FEE7FEE7BB300008AE
:1002000031010008202A04DB203A21FA02F0002103
:10021000704721FA02F3D040C2F120029140084316
:100220001946704740EA01039B0703D009E008C95B
:10023000121F08C0042AFAD203E011F8013B00F8AB
:10024000013B521EF9D27047D2B201E000F8012BF7
:10025000491EFBD270470022F6E710B513460A4646
:1002600004461946FFF7F0FF204610BD421C10F867
:10027000011B0029FBD1801A7047034611F8012B9E
:1002800000F8012B002AF9D1184670472DE9FE4FDE
:10029000804681EA0300C00F0C46009021F0004127
:1002A00023F00045B8EB0200A94105D240462146A3
:1002B00090461C460B46024623F00040104347D0B0
:1002C000270DC7F30A00C3F30A510290401A0190A8
:1002D00040286BDAC3F3130040F4801B0098924669
:1002E00020B10023D2EB030A63EB0B0B01985946B4
:1002F000C0F14002504600F098F906460D465046BF
:100300005946019A00F0A0F910EB08006141002461
:1003100087EA115284EAE7731A4340D0009A62B325
:10032000019A012A4FEA075215DC001B61EB02011A
:100330004FF0004202EA0752CDE90042001C41F5AD
:10034000801132462B4600F0A0F903B0BDE8F08FD3
:1003500040462146F9E7001B61EB0201001C41F514
:10036000801300185B412018A2F5001747EB03012A
:1003700040EAD570B6196D4111E06D084FEA3606B6
:1003800045EAC0754FEA0752001B61EB0201001CF1
:1003900041F5801149084FEA3000001951413246B9
:1003A0002B4603B0BDE8F04F00F060B90098012281
:1003B00040000023D0EB020263EBE073009821467B
:1003C0004FEAE074B8EB000061EB0401E9E783F069
:1003D00000435BE781F0004158E72DE9FE4F81EAD9
:1003E000030404F0004421F0004100944FF0000B9E
:1003F00023F0004350EA01045ED052EA03045BD0CC
:10040000C3F30A54C1F30A552C44A4F2F334019403
:10041000A0FB0254C1F3130141F48011C3F3130391
:1004200043F4801301FB024400FB034E840A970A45
:1004300044EA815447EA8357A4FB076802958D0A72
:1004400005FB07854FEA932C04FB0C542705029DFE
:100450004FEA065847EA1637B5EB08056EEB070C6E
:10046000870E920E47EA811742EA8312A7FB020128
:10047000B6EB0B0164EB00042B0D43EA0C335E1862
:1004800044EB1C50DA465146E7FB0201C5F3130466
:100490004FEA0B3343EA14534FEA0432019C43EA18
:1004A0000603A4F10C040294009CCDE900B400F012
:1004B000ECF803B0BDE8F08F00200146F9E72DE924
:1004C000F04D81EA030404F0004B21F0004514468E
:1004D0004FF0000A23F0004150EA050220D054EA10
:1004E00001021DD0C5F30A570246C5F31303C1F339
:1004F0001300C1F30A5640F4801543F48013A7EBB0
:100500000608101BD64608F2FD3873EB050002D32F
:1005100008F1010801E092185B41B8F1000F03DA1D
:1005200000200146BDE8F08D00204FF48011064602
:1005300084460EE0171B73EB050705D3121B63EB14
:10054000050306434CEA010C49084FEA30009218B3
:100550005B4150EA0107EDD152EA030012D082EA72
:10056000040083EA0501084305D0101BAB4106D205
:100570000122002306E000224FF0004302E06FF06A
:10058000010253101AEB06004CEB085110EB0A0065
:1005900041EB0B01BDE8F04D00F068B830B50B46FB
:1005A000014600202022012409E021FA02F59D42A3
:1005B00005D303FA02F5491B04FA02F52844151E77
:1005C000A2F10102F1DC30BD2DE9F05F054600200B
:1005D00092469B4688460646814640241BE02846B4
:1005E000414647462246FFF70DFE53465A46C01A7B
:1005F000914110D311461846224600F016F82D1AE4
:1006000067EB01084F4622460120002100F00DF85B
:1006100017EB00094E41201EA4F10104DFDC48461F
:1006200031462A464346BDE8F09F202A04DB203AA3
:1006300000FA02F1002070479140C2F1200320FA35
:1006400003F3194390407047202A06DBCB17203A6A
:1006500041FA02F043EAE07306E041FA02F3D040C7
:10066000C2F12002914008431946704710B5141E8C
:1006700073F1000408DA401C41F1000192185B415B
:100680001A4301D120F0010010BD2DE9F04D924632
:100690009B4611B1B1FA81F202E0B0FA80F2203249
:1006A0009046FFF7C2FF04460F4640EA0A0041EABF
:1006B0000B0153465A46084313D0114653EA010032
:1006C00019D0C8F140025046FFF79CFD05460E4682
:1006D000504659464246FFF7A8FF084305D001207F
:1006E00004E020463946BDE8F08D0020054346EA87
:1006F000E0762C4337430A986305E40AA0EB080030
:100700000022FD0A44EA47540A3002D5002001467F
:10071000E9E7010510196941DDE90845001969415A
:10072000BDE8F04DA2E7C1F30A52C1F3130140F254
:10073000FF3341F480119A4202DA002001467047EB
:1007400040F233439A42A2F2334202DC5242FFF7B4
:1007500059BDFFF76ABF000030B5041E71F10004F7
:1007600004DB4FF00044404264EB0101141E73F1BE
:10077000000405DB1C464FF00043524263EB0403C8
:10078000994208BF904230BD064C074D06E0E06834
:1007900040F0010394E8070098471034AC42F6D3C8
:1007A000FFF7CAFCCC6C0008EC6C000800BFFEE749
:1007B00010B5024800F0D7F910BD0000CC000020B1
:1007C00010B5024800F0CFF910BD0000CC000020A9
:1007D00010B5024800F05AFD10BD00005402002080
:1007E00010B5024800F052FD10BD000010020020BC
:1007F00010B5024800F04AFD10BD0000CC010020F9
:1008000030B590F840500124AC40C56B6C60046872
:1008100063604468102C04D10468A2600468E1603D
:1008200003E00468A1600468E26030BD704772B6FE
:1008300000BFFEE7F0B504460D461E4694F8207052
:1008400020688368A86800B900E000BF012F01D0CC
:10085000022F7DD103F0806030B903F0006018B939
:1008600003F0805000287ED0C3F30161012088404E
:100870003060A86860B9B5F800C0E86840EA4C5C30
:10088000206800F5C07000EB0110C0F800C00FE058
:10089000D5E901C040EACC00D5F80CC040EA0C0014
:1008A000D4F800C00CF5C07C0CEB011CCCF80000A7
:1008B000D5F810C0206800F5C07000EB0110C0F83A
:1008C00004C0287D01280ED1206800F5C07000EB1F
:1008D0000110406840F4807C206800F5C07000EB97
:1008E0000110C0F804C0D079000692F806C040EAB2
:1008F0000C4092F805C040EA0C2092F804C040EA8F
:100900000C00D4F800C00CF5C07C0CEB011CCCF83A
:100910000C00D078000692F802C040EA0C4092F831
:1009200001C040EA0C2092F800C040EA0C00D4F864
:1009300000C00CF5C07C0CEB011CCCF80800206852
:1009400000F5C07000EB0110006840F0010C01E000
:100950000FE008E0206800F5C07000EB0110C0F85F
:1009600000C00020F0BD606A40F400106062012009
:10097000F8E7606A40F4802060620120F2E700003E
:1009800010B504460348844202D1034803F0B8FB83
:1009900010BD0000CC0000206403002070B50446A8
:1009A00094F82050012D01D0022D7DD151B920683D
:1009B000C06800F0030080B9606A40F40010606213
:1009C000012070BD2068006900F0030028B9606A4A
:1009D00040F4001060620120F3E7206800F5D87051
:1009E00000EB0110006800F004009060906840B9CE
:1009F000206800F5D87000EB01100068400D106011
:100A000007E0206800F5D87000EB01100068C0080E
:100A10005060206800F5D87000EB0110006800F00D
:100A20000200D060206800F5D87000EB011040682B
:100A300000F00F00082802D30820106108E02068A9
:100A400000F5D87000EB0110406800F00F00106155
:100A5000206800F5D87000EB0110406800F47F407A
:100A6000000A9061206800F5D87000EB0110406822
:100A7000000C5061206800F5D87000EB0110806810
:100A80001870206800F5D87000EB0110806800F441
:100A90007F40000A5870206800F5D87000EB011004
:100AA000806800F47F0000E03CE0000C9870206853
:100AB00000F5D87000EB01108068000ED870206837
:100AC00000F5D87000EB0110C0681871206800F5BF
:100AD000D87000EB0110C06800F47F40000A587124
:100AE000206800F5D87000EB0110C06800F47F00AA
:100AF000000C9871206800F5D87000EB0110C068F8
:100B0000000ED87131B92068C06840F02000266816
:100B1000F06005E02068006940F020002668306140
:100B200000204EE7606A40F480206062012048E7C0
:100B30000146002091F82020012A01D0022A11D17B
:100B40000B689B6803F0806303B1401C0B689B68D3
:100B500003F0006303B1401C0B689B6803F08053F3
:100B600003B1401C70472DE9F05F04460025206862
:100B700046692068D0F80490206887682068D0F81B
:100B80000CA02068D0F810B02068D0F8188006F0CB
:100B90000100002855D007F00100C0B101202168F4
:100BA000886007F0020018B1204600F041FA0EE01C
:100BB00007F0040010B145F4006508E007F00800F4
:100BC00010B145F4805502E0204600F030FA07F4F9
:100BD0008070C8B14FF480702168886007F400709D
:100BE00018B1204600F034FA0EE007F4806010B12E
:100BF00045F4005508E007F4006010B145F4804565
:100C000002E0204600F022FA07F48030C8B14FF429
:100C100080302168886007F4003018B1204600F069
:100C200027FA0EE007F4802010B145F4004508E0F3
:100C300007F4002010B145F4803502E0204600F0B2
:100C400015FA06F0080038B10AF0100020B145F49A
:100C5000007510202168C86006F0040040B10AF059
:100C6000080028B108202168C860204600F0C0F9BB
:100C700006F0020038B12068C06800F0030010B12F
:100C8000204600F0B7F906F0400038B10BF0100034
:100C900020B145F4806510202168086106F020002D
:100CA00040B10BF0080028B10820216808612046F7
:100CB00000F0BAF906F0100038B12068006900F0C1
:100CC000030010B1204600F0B0F906F4003040B146
:100CD00009F0100028B1102021684860204600F07B
:100CE000A5F906F4803040B109F0080028B10820C9
:100CF00021684860204600F0C9F906F4004088B336
:100D000009F0040078B306F4807020B108F0010007
:100D100008B145F0010506F4007020B108F00200AA
:100D200008B145F0020506F4806020B108F0040027
:100D300008B145F0040506F40060A0B108F07000A9
:100D400088B108F07000402817D006DC10280BD0BE
:100D500020280CD0302819D10CE0502810D0602861
:100D600014D110E01DE019E045F008050FE045F052
:100D700010050CE045F0200509E045F0400506E0CF
:100D800045F0800503E045F4807500E000BF00BF3A
:100D90002068806920F07000216888610420216843
:100DA00048602DB1606A284360622046FFF7E8FD85
:100DB000BDE8F09F70B504460CB9012070BD94F8F1
:100DC000200010B9204600F0AFF82068006840F01D
:100DD00001002168086000F099FE05460DE000F072
:100DE00095FE401B0A2808D9606A40F40030606212
:100DF000052084F820000120E0E72068406800F02A
:100E000001000028EBD02068006820F00200216873
:100E1000086000F07BFE05460DE000F077FE401B09
:100E20000A2808D9606A40F400306062052084F81E
:100E300020000120C2E72068406800F0020000287E
:100E4000EBD1207E012806D12068006840F08000A8
:100E50002168086005E02068006820F080002168B3
:100E60000860607E012806D12068006840F04000DC
:100E70002168086005E02068006820F040002168D3
:100E80000860A07E012806D12068006840F020009C
:100E90002168086005E02068006820F020002168D3
:100EA0000860E07E012806D12068006820F010006C
:100EB0002168086005E02068006840F010002168A3
:100EC0000860207F012806D12068006840F00800F3
:100ED0002168086005E02068006820F008002168AB
:100EE0000860607F012806D12068006840F0040097
:100EF0002168086005E02068006820F0040021688F
:100F00000860D4E902010843216908436169084384
:100F10006168491E08432168C861002060620120A1
:100F200084F82000002049E710B586B00446002070
:100F300002900390049005902A49206888424ED17F
:100F400000BF2948C06940F000702749C8610846C1
:100F5000C06900F00070019000BF00BF00BF0846EC
:100F6000806940F0040088610846806900F0040050
:100F7000019000BF00BFC8140290002003900490AD
:100F800002A91A4800F01CFC4FF480500290022085
:100F900003900320059002A9144800F011FC0022E0
:100FA0000521132000F072FE132000F05FFE0022E6
:100FB0000521142000F06AFE142000F057FE0022E4
:100FC0000521152000F062FE152000F04FFE0022E2
:100FD0000521162000F05AFE162000F047FE06B04C
:100FE00010BD0000006400400010024000080140F5
:100FF0007047000010B58AB0044601AB03AA002177
:101000002046FFF7CBFC0648844207D10548C06A5A
:1010100020B1044801A9C26A03A890470AB010BDD4
:10102000CC00002064030020704770477047704771
:1010300010B504460348844202D1034803F060F827
:1010400010BD0000CC0000206403002070470000A9
:1010500010B504460348844202D1034803F050F817
:1010600010BD0000CC000020640300207047000089
:1010700010B504460348844202D1034803F040F807
:1010800010BD0000CC000020640300207047014622
:10109000002291F82100022808D00420886300BFB4
:1010A000002081F8200000BF012070470868006818
:1010B00020F00E000B6818600868006820F001003E
:1010C0000B68186091F8403001209840CB6B586055
:1010D000012081F8210000BF002081F8200000BF1E
:1010E0001046E2E770B50446002594F82100022876
:1010F00003D00420A0630125C1E02068006820F02F
:101100000E00216808602068006820F00100216856
:1011100008605C492068884252D95A497839206869
:10112000884201D1012047E056496439206888424D
:1011300001D1102040E0534950392068884201D144
:10114000801539E04F493C392068884201D180142C
:1011500032E04C4928392068884202D14FF480306F
:101160002AE0484914392068884202D14FF480109F
:1011700022E044492068884201D140041CE04249F1
:101180002068884201D1012016E03F4914312068CF
:10119000884201D110200FE03B4928312068884265
:1011A00001D1801508E038493C312068884201D1DE
:1011B000801401E04FF480303349091F086051E08A
:1011C000304978392068884201D1012047E02D4913
:1011D00064392068884201D1102040E02949503903
:1011E0002068884201D1801539E026493C392068C1
:1011F000884201D1801432E022492839206888428F
:1012000002D14FF480302AE01E4914392068884208
:1012100002D14FF4801022E01A492068884201D19F
:1012200040041CE018492068884201D1012016E0E2
:10123000154914312068884201D110200FE012496D
:1012400028312068884201D1801508E00E493C31E0
:101250002068884201D1801401E04FF480300949B0
:1012600080394860012084F8210000BF002084F804
:10127000200000BF606B10B12046616B8847284694
:1012800070BD0000800002400804024070B50446B2
:10129000E06B05682068066894F8401004208840D8
:1012A0002840002875D006F004000028FAD02068F5
:1012B000006800F0200028B92068006820F00400D1
:1012C00021680860D5492068884254D9D3497839C3
:1012D0002068884201D1042049E0D049643920685F
:1012E000884201D1402042E0CC49503920688842F0
:1012F00001D100153BE0C9493C392068884202D140
:101300004FF4804033E0C54928392068884202D133
:101310004FF480202BE0C14914392068884202D163
:101320004FF4800023E0BD492068884201D1C00409
:101330001DE0BB492068884201D1042017E0B8496C
:1013400014312068884201D1402010E0B44928318E
:101350002068884201D1001509E0B1493C3120687C
:10136000884202D14FF4804001E04FF48020AC4924
:10137000091F086054E0A94978392068884201D1E2
:1013800004204AE0A54964392068884202D14020FF
:1013900043E04CE0A14950392068884201D1001552
:1013A0003BE09E493C392068884202D14FF480409E
:1013B00033E09A4928392068884202D14FF48020CE
:1013C0002BE0964914392068884202D14FF48000FE
:1013D00023E092492068884201D1C0041DE0904971
:1013E0002068884201D1042017E08D49143120681B
:1013F000884201D1402010E0894928312068884284
:1014000001D1001509E086493C312068884202D1AB
:101410004FF4804001E04FF48020804980394860DB
:10142000E06A002802D02046E16A8847F4E094F898
:101430004010022088402840002871D006F00200A9
:101440000028FAD02068006800F0200040B9206829
:10145000006820F00A0021680860012084F821005B
:101460006E492068884254D96C497839206888428E
:1014700001D1022049E0694964392068884201D1DC
:10148000202042E0654950392068884201D140154A
:101490003BE062493C392068884202D14FF4005059
:1014A00033E05E4928392068884202D14FF4003089
:1014B0002BE05A4914392068884202D14FF40010B9
:1014C00023E056492068884201D180041DE0544938
:1014D0002068884201D1022017E051491431206868
:1014E000884201D1202010E04D49283120688842EF
:1014F00001D1401509E04A493C312068884202D1B7
:101500004FF4005001E04FF400304549091F0860D6
:1015100054E0424978392068884202D102204AE0EA
:1015200057E03E4964392068884201D1202042E0DA
:101530003A4950392068884201D140153BE037498B
:101540003C392068884202D14FF4005033E03349DF
:1015500028392068884202D14FF400302BE02F490F
:1015600014392068884202D14FF4001023E02B493F
:101570002068884201D180041DE029492068884202
:1015800001D1022017E0264914312068884201D198
:10159000202010E0224928312068884201D14015DE
:1015A00009E01F493C312068884202D14FF40050C5
:1015B00001E04FF4003019498039486000BF002035
:1015C00084F8200000BFA06A30B32046A16A884793
:1015D00022E094F84010082088402840E0B106F04E
:1015E0000800C8B12068006820F00E00216808607B
:1015F00094F8401001208840E16B48600120A0630E
:1016000084F8210000BF002084F8200000BF206B78
:1016100010B12046216B884770BD00008000024059
:10162000080402400146002209B9012070471E4B00
:10163000086898420BD21D4B0868C01A1423B0FBEF
:10164000F3F08000086419480838C8630AE0164BB4
:101650000868C01A1423B0FBF3F080000864124835
:101660000838C863022081F821000868026843F640
:10167000F0708243D1E901031843CB6818430B692A
:1016800018434B6918438B691843CB6918430243CD
:101690000868026000208863012081F82100002092
:1016A00081F8200000BFC1E70804024008000240A2
:1016B0002DE9F04104460D4616461F464FF000083E
:1016C00000BF94F82000012802D10220BDE8F0817B
:1016D000012084F8200000BF94F82100012817D1D0
:1016E000022084F821000020A0632068006820F018
:1016F0000100216808603B46324629462046FFF734
:101700007FF82068006840F001002168086006E06A
:1017100000BF002084F8200000BF4FF002084046C0
:10172000D4E72DE9F04104460D4616461F464FF01A
:10173000000800BF94F82000012802D10220BDE873
:10174000F081012084F8200000BF94F821000128D6
:101750002CD1022084F821000020A06320680068BA
:1017600020F00100216808603B46324629462046A9
:10177000FFF746F8E06A30B12068006840F00E00DC
:10178000216808600BE02068006820F004002168F0
:1017900008602068006840F00A002168086020683E
:1017A000006840F001002168086006E000BF0020EA
:1017B00084F8200000BF4FF002084046BFE7000059
:1017C0002DE9F847024600239C467BE14FF00108D3
:1017D00008FA03F4D1F8008008EA0400A0427DD1A1
:1017E000DFF8F4A2D1F80480A8EB0A09D0453AD07A
:1017F00014DCB8F1030F50D009DCB8F1000F31D080
:10180000B8F1010F1CD0B8F1020F49D120E0B8F1B6
:10181000110F18D0B8F1120F42D11EE0B9F5881F90
:1018200025D006DCB9F5803F20D0B9F5801F37D12F
:101830001AE0B9F5001F18D0B9F5041F30D117E030
:10184000D1F80CC02DE0D1F80C8008F1040C28E090
:10185000D1F80C8008F1080C23E0D1F80C8008F1D5
:101860000C0C1EE000BF00BF00BF00BF00BF00BFE8
:10187000D1F80880B8F1000F02D14FF0040C0BE052
:10188000D1F80880B8F1010F03D14FF0080C1461B2
:1018900002E04FF0080C546103E04FF0000C00E050
:1018A00000BF00BFFF2801D8904601E002F1040804
:1018B0004646FF2802D84FEA830803E0A3F1080850
:1018C0004FEA88084746D6F800804FF00F0909FA1A
:1018D00007F928EA09080CFA07F900E07AE048EA73
:1018E0000908C6F80080D1F8048008F08058B8F1E3
:1018F000805F6FD100BFDFF8E481D8F8188048F02E
:101900000108DFF8D891C9F81880C846D8F81880BF
:1019100008F00108CDF8008000BF00BF4FEAB938D9
:101920004FEA930958F829504FEA83784FEA18791B
:101930004FF00F0808FA09F825EA0805DFF8A0813A
:10194000424502D14FF0000824E0DFF8988142457B
:1019500002D14FF001081DE0DFF88C81424502D131
:101960004FF0020816E0DFF88481424502D14FF0C3
:1019700003080FE0DFF87881424502D14FF00408F8
:1019800008E0DFF87081424502D14FF0050801E020
:101990004FF006084FEA83794FEA197908FA09F8F7
:1019A00048EA0505DFF850814FEA930948F82950C5
:1019B000D1F8048008F48018B8F5801F0BD1DFF847
:1019C0003C81D8F8008048EA0008DFF83091C9F877
:1019D00000800AE075E0DFF82481D8F8008028EA6A
:1019E0000008DFF81891C9F80080D1F8048008F4E5
:1019F0000018B8F5001F0ED1DFF8008108F10408C7
:101A0000D8F8008048EA0008DFF8F09009F10409EE
:101A1000C9F800800DE0DFF8E48008F10408D8F888
:101A2000008028EA0008DFF8D49009F10409C9F819
:101A30000080D1F8048008F40038B8F5003F0ED1DA
:101A4000DFF8B880A8F10408D8F8008048EA000858
:101A5000DFF8A890A9F10409C9F800800DE0DFF8CB
:101A60009C80A8F10408D8F8008028EA0008DFF874
:101A70008C90A9F10409C9F80080D1F8048008F419
:101A80008038B8F5803F0ED1DFF87080A8F10808E3
:101A9000D8F8008048EA0008DFF86090A9F108094A
:101AA000C9F800800DE0DFF85480A8F10808D8F8E4
:101AB000008028EA0008DFF84490A9F10809C9F875
:101AC00000805B1CD1F8008028FA03F8B8F1000F01
:101AD0007FF47CAEBDE8F8870000111000100240D2
:101AE00000080140000C01400010014000140140BA
:101AF00000180140001C014008000140080401409A
:101B00000AB1016101E00B040361704701480068FC
:101B1000704700000400002003480068034909786A
:101B20000844014908607047040000200C000020B0
:101B300010B50848006840F010000649086003200E
:101B400000F0E2F80F2000F007F800F05FF8002046
:101B500010BD0000002002402DE9F04188B004468D
:101B60000027B846002600BF2348C06940F0200087
:101B70002149C8610846C06900F02000019000BFFB
:101B800000BF02A903A800F099F9069F1FB900F051
:101B9000BDF9054602E000F0B9F945001748B5FB6C
:101BA000F0F0A0F1010816481649086040F2E7314C
:101BB0001448C160C0F80480002101618160816126
:101BC00000F030FC064696B90E4800F05FFC064671
:101BD0006EB9372000F04AF8102C07D200222146B7
:101BE000372000F053F80848046000E00126304632
:101BF00008B0BDE8F08100000010024040420F0034
:101C000000140040980200200800002008B500BF22
:101C10001448806940F001001249886108468069D3
:101C200000F00100009000BF00BF00BF0846C0697F
:101C300040F08050C8610846C06900F080500090B4
:101C400000BF00BF00220F21901E00F01FF800BF50
:101C50000549486820F0E06040F00070486000BF2F
:101C600008BD000000100240000001400146084687
:101C7000002809DB00F01F0301229A4043099B0062
:101C800003F1E023C3F8002100BF70472DE9F05FA6
:101C900080460D461646002701F0AAFD0746394644
:101CA0002A46334601F00700C0F1070ABAF1040FD3
:101CB00002D94FF0040A01E0C0F1070AD14600F151
:101CC000040ABAF1070F02D24FF0000A01E0A0F1B6
:101CD000030AD4464FF0010A0AFA09FAAAF1010AE6
:101CE0000AEA020A0AFA0CFA4FF0010B0BFA0CFB93
:101CF000ABF1010B0BEA030B4AEA0B042146404609
:101D000001F07EFDBDE8F09F00BF00F00702064B2A
:101D100019684FF6FF031940044B0B4343EA0221B5
:101D2000014B196000BF70470CED00E00000FA05A0
:101D300070B504460D460CB9012070BD5A480068C4
:101D400000F00700A8420ED25748006820F00700B4
:101D50002843554908600846006800F00700A8427B
:101D600001D00120E9E7207800F0020002281DD10F
:101D7000207800F00400042805D14C48406840F465
:101D8000E0604A494860207800F00800082805D142
:101D90004648406840F460504449486043484068C1
:101DA00020F0F000A168084340494860207800F026
:101DB000010078B36068012806D13C48006800F44F
:101DC000003090B90120B8E76068022806D1374892
:101DD000006800F0007040B90120AEE733480068A9
:101DE00000F0020008B90120A7E73048406820F061
:101DF0000300616808432D494860FFF787FE0646E7
:101E000009E0FFF783FE801B41F28831884202D946
:101E1000032092E707E02548406800F00C00616865
:101E2000B0EB810FEDD12048006800F00700A84218
:101E30000ED91D48006820F0070028431A490860A1
:101E40000846006800F00700A84201D0012074E7AE
:101E5000207800F00400042807D11448406820F4DA
:101E6000E060E168084311494860207800F008000C
:101E7000082808D10D48406820F46050216940EAE4
:101E8000C1000A49486000F061F808494968C1F397
:101E90000311074A515CC8400649086006480068BB
:101EA000FFF75AFE002048E70020024000100240E1
:101EB000526C000810000020080000200F22026071
:101EC0000D4A526802F0030242600B4A526802F067
:101ED000F0028260084A526802F4E062C260064A78
:101EE000526802F46052D2080261044A126802F099
:101EF00007020A6070470000001002400020024004
:101F000001480068704700001000002000B5FFF78E
:101F1000F7FF04494968C1F30221034A515CC840F4
:101F200000BD000000100240626C000800B5FFF721
:101F3000E7FF04494968C1F3C221034A515CC84024
:101F400000BD000000100240626C000870B5002166
:101F50000022002400230020134D696801F00C05C5
:101F6000F5B1042D02D0082D19D101E00F4819E078
:101F70000F4DC1F38346AB5D01F4803555B10A4D79
:101F80006D68C5F340450B4E725D084D5D43B5FB72
:101F9000F2F402E0084D03FB05F4204602E000BF26
:101FA000024800BF00BF70BD0010024000127A005E
:101FB000406C0008506C000800093D00F8B504466C
:101FC0000CB90120F8BD207800F00100002878D07D
:101FD000F848406800F00C0004280CD0F548406830
:101FE00000F00C00082811D1F248406800F480305D
:101FF000B0F5803F0AD1EF48006800F400300028B7
:102000005FD0606800285CD10120DBE700BF60681A
:10201000B0F5803F06D1E748006840F48030E549DC
:10202000086028E0606858B9E248006820F4803011
:10203000E04908600846006820F4802008601AE043
:102040006068B0F5A02F0BD1DA48006840F480201A
:10205000D84908600846006840F4803008600AE00B
:10206000D448006820F48030D249086008460068EF
:1020700020F48020086000BF606888B1FFF746FD4B
:10208000054606E0FFF742FD401B642801D9032006
:1020900098E7C848006800F400300028F2D010E04B
:1020A000FFF734FD054606E0FFF730FD401B6428CE
:1020B00001D9032086E7BF48006800F400300028FB
:1020C000F2D1207800F00200022857D1B9484068C8
:1020D00000F00C0050B1B748406800F00C00082830
:1020E00018D1B448406800F4803098B9B14800680D
:1020F00000F0020020B12069012801D0012061E731
:10210000AC48006820F0F800616940EAC100A949C4
:10211000086033E02069E8B10120A7490860FFF7B3
:10212000F5FC054606E0FFF7F1FC401B022801D94B
:10213000032047E79F48006800F002000028F2D023
:102140009C48006820F0F800616940EAC1009949A4
:10215000086013E0002098490860FFF7D7FC0546A7
:1021600006E0FFF7D3FC401B022801D9032029E732
:102170009048006800F002000028F2D1207800F0BA
:10218000080008282DD1A069B8B101208B4908604A
:10219000FFF7BCFC054606E0FFF7B8FC401B022831
:1021A00001D903200EE78348406A00F002000028AE
:1021B000F2D0012000F020FF13E000207F490860EA
:1021C000FFF7A4FC054606E0FFF7A0FC401B022831
:1021D00001D90320F6E67748406A00F002000028A3
:1021E000F2D1207800F00400042873D10027714850
:1021F000C06900F0805070B900BF6E48C06940F0FF
:1022000080506C49C8610846C06900F08050009059
:1022100000BF00BF01276A48006800F48070B0B9B1
:102220006748006840F4807065490860FFF76EFCFD
:10223000054606E0FFF76AFC401B642801D903202D
:10224000C0E65F48006800F480700028F2D000BF4C
:10225000E068012806D15748006A40F0010055495E
:10226000086227E0E06858B95248006A20F001008F
:10227000504908620846006A20F00400086219E02C
:10228000E06805280BD14B48006A40F0040049493A
:1022900008620846006A40F0010008620AE045480A
:1022A000006A20F00100434908620846006A20F0F5
:1022B0000400086200BFE068A0B1FFF727FC0546F4
:1022C00009E0FFF723FC401B41F28831884202D924
:1022D000032077E622E03748006A00F00200002879
:1022E000EFD012E0FFF712FC054608E0FFF70EFC06
:1022F000401B41F28831884201D9032062E62D4813
:10230000006A00F002000028F0D1012F05D1294811
:10231000C06920F080502749C86100BFE069C8B398
:102320002448406800F00C00082860D0E0690228CA
:1023300048D1002020490866FFF7E8FB054606E083
:10234000FFF7E4FB401B022801D903203AE61948B5
:10235000006800F000700028F2D1206AB0F5803FDC
:1023600007D11448406820F40030A168084311499F
:102370004860D4E9080108430E49496821F4741102
:1023800008430C49486001200B490866FFF7BEFB73
:10239000054607E03DE0FFF7B9FB401B022801D9E5
:1023A00003200FE60348006800F000700028F2D018
:1023B0002FE0000000100240000042428004424230
:1023C00000700040002014490866FFF79FFB054697
:1023D00006E0FFF79BFB401B022801D90320F1E533
:1023E0000E48006800F000700028F2D111E0E069AA
:1023F000012800D1E6E50948466806F48031206AE4
:10240000814204D106F47011606A814201D001203A
:10241000D8E50020D6E5000000004242001002404E
:102420007047704710B504460CB9012010BD94F8F0
:102430003D0028B9002084F83C00204600F025F833
:10244000022084F83D00211D206800F03FFE01209D
:1024500084F8460000BF84F83E0001213F2001556A
:10246000402001554120015500BF00BF012084F8E4
:10247000420043200155442001554520015500BF2D
:10248000012084F83D000020D0E77047014691F814
:102490003D00012801D001207047022081F83D0055
:1024A0000868C06840F001000B68D860164B0868E7
:1024B000984213D0154B086898420FD00868B0F1C5
:1024C000804F0BD0124B0868984207D0114B086818
:1024D000984203D0104B086898420CD10868806875
:1024E00000F00702062A0CD00868006840F00100DE
:1024F0000B68186005E00868006840F001000B6890
:1025000018600020C8E70000002C014000340140A2
:102510000004004000080040000C0040704710B567
:10252000044620680069C0F34000D8B12068C06844
:10253000C0F34000B0B16FF00200216808610120D3
:1025400020772068806900F0030018B12046FFF76B
:10255000E5FF05E0204600F0ADF8204600F0ABF8BE
:102560000020207720680069C0F38000D8B120687F
:10257000C068C0F38000B0B16FF00400216808614A
:10258000022020772068806900F4407018B120464E
:10259000FFF7C4FF05E0204600F08CF8204600F06D
:1025A0008AF80020207720680069C0F3C000D8B105
:1025B0002068C068C0F3C000B0B16FF008002168A7
:1025C0000861042020772068C06900F0030018B17A
:1025D0002046FFF7A3FF05E0204600F06BF82046F9
:1025E00000F069F80020207720680069C0F300102F
:1025F000D8B12068C068C0F30010B0B16FF010000F
:1026000021680861082020772068C06900F44070C4
:1026100018B12046FFF782FF05E0204600F04AF897
:10262000204600F048F8002020772068006900F07C
:10263000010058B12068C06800F0010030B16FF0AF
:10264000010021680861204600F036F82068006922
:10265000C0F3C01058B12068C068C0F3C01030B1DA
:102660006FF08000216808612046FFF7D9FE2068DE
:102670000069C0F3801058B12068C068C0F38010B2
:1026800030B16FF0400021680861204600F020F86A
:1026900020680069C0F3401058B12068C068C0F3DA
:1026A000401030B16FF02000216808612046FFF72C
:1026B000B8FE10BD7047704710B504460349206846
:1026C000884201D1FFF728FA10BD00000014004035
:1026D00070477047704700002DE9F84F04462068A6
:1026E00005682068C668206847694FF00009CA4637
:1026F00005F00F09B9F1000F0AD105F0200038B13B
:1027000006F0200020B1204600F08BFEBDE8F88FD7
:10271000B9F1000F7BD007F0010018B906F49070F2
:10272000002874D005F0010030B106F4807018B1B3
:10273000606C40F00100606405F0040030B107F007
:10274000010018B1606C40F00200606405F0020006
:1027500030B107F0010018B1606C40F00400606413
:1027600005F0080048B106F0200010B907F001009C
:1027700018B1606C40F008006064606C002845D0BF
:1027800005F0200028B106F0200010B1204600F02E
:1027900048FE20684069C0F3801A606C00F00800B1
:1027A00010B9BAF1000F2CD0204600F0AEFD206821
:1027B000406900F0400000B300BF00BF2168143141
:1027C00051E8001F21F040002168143141E8000267
:1027D000002AF3D100BFE06B50B17748E16B48634A
:1027E000E06BFEF77FFC88B1E06B416B88470DE042
:1027F0002046FFF76FFF09E009E02046FFF76AFF78
:1028000004E02046FFF766FF002060647EE7206B4F
:10281000012877D105F01000002873D006F01000D1
:102820000028FAD000BF00200090206800680090C7
:1028300020684068009000BF00BF2068406900F039
:10284000400000285FD0E06B006840681FFA80F805
:10285000B8F1000F55D0A08D404552DDA4F82E8070
:10286000E06B8069202843D000BF00BF21680C3195
:1028700051E8001F21F4807021680C3141E800020A
:10288000002AF3D100BF00BF00BF2168143151E816
:10289000001F21F001002168143141E80002002AE4
:1028A000F3D100BF00BF00BF2168143151E8001F01
:1028B00021F040002168143141E80002002AF3D1E0
:1028C00000BF202084F842000020206300BF00BF2A
:1028D00021680C3151E8001F21F0100021680C31F3
:1028E00041E80002002AF3D100BFE06BFEF7CFFB06
:1028F00002206063A08DE28D801A81B22046FFF72E
:10290000E8FE03E742E0A08DE18D401A1FFA80F84F
:10291000E08DD0B3B8F1000F37D000BF00BF216801
:102920000C3151E8001F21F4907021680C3141E80E
:102930000002002AF3D100BF00BF00BF216814319C
:1029400051E8001F21F001002168143141E8000224
:10295000002AF3D100BF202084F842000020206329
:1029600000BF00BF21680C3151E8001F21F01000AA
:1029700021680C3141E80002002AF3D100BF022097
:10298000606341462046FFF7A4FEBFE605F08000E5
:1029900030B106F0800018B1204600F0A3FEB5E685
:1029A00005F0400030B106F0400018B1204600F0BC
:1029B000E2FCABE600BFA9E66931000810B50446A9
:1029C0000CB9012010BDA06900B100E000BF94F86F
:1029D000410028B9002084F84000204600F02AF881
:1029E000242084F841002068C06820F40050216849
:1029F000C860204600F094FD2068006920F49040F3
:102A0000216808612068406920F02A002168486137
:102A10002068C06840F400502168C86000206064ED
:102A2000202084F8410084F842000020606300BF49
:102A3000C8E7000010B586B004460020029003905D
:102A4000049005907E49206888426CD100BF7D4883
:102A5000806940F480407B4988610846806900F4C1
:102A60008040019000BF00BF00BF0846806940F071
:102A7000040088610846806900F00400019000BFEE
:102A800000BF48150290022003900320059002A980
:102A90006D48FEF795FE4FF4806002900020039091
:102AA000049002A96848FEF78BFE684868490860F0
:102AB000002048600021664881608021C1600021BB
:102AC00001614161202181610021C161FEF7AAFD00
:102AD00008B1FDF7ACFE00BF5D48E063446200BF93
:102AE0005A4814385B490860102048600021594852
:102AF00081608021C1600021016141618161C1610A
:102B0000FEF790FD08B1FDF792FE00BF5148A063AB
:102B1000446200BF002205212520FFF7B7F82520D9
:102B2000FFF7A4F889E04C49206888422ED100BF05
:102B30004448C06940F400304249C8610846C06951
:102B400000F40030019000BF00BF00BF084680695C
:102B500040F0040088610846806900F0040001909C
:102B600000BF00BF042002900220039003200590C4
:102B700002A93548FEF724FE0820029000200390A9
:102B8000049002A93048FEF71BFE56E03349206846
:102B9000884252D100BF2B48C06940F480202949A7
:102BA000C8610846C06900F48020019000BF00BFE2
:102BB00000BF0846806940F00800886108468069C7
:102BC00000F00800019000BF00BF0815029002202D
:102BD00003900320059002A92148FEF7F1FD4FF470
:102BE0000060029000200390049002A91C48FEF7A8
:102BF000E7FD164828381B4908600020486000217E
:102C0000184881608021C16000210161416120215B
:102C100081610021C161FEF705FD08B1FDF707FEE6
:102C200000BF1048E063446200BF00220521272056
:102C3000FFF72CF82720FFF719F806B010BD0000A9
:102C400000380140001002400008014058000240D6
:102C5000CC01002010020020004400400048004049
:102C6000000C01405402002070B504460D46164683
:102C700094F8420020280BD105B10EB9012070BD97
:102C80000020206332462946204600F0C7FCF6E7C4
:102C90000220F4E710B504460748844204D102211B
:102CA000064802F00BFE06E00548844203D10221EB
:102CB000044802F003FE10BDF4000020C8270020E5
:102CC000840100200C28002010B5044607488442E7
:102CD00004D10121064802F0F1FD06E005488442D6
:102CE00003D10121044802F0E9FD10BDF4000020E9
:102CF000C8270020840100200C280020F7B50446D6
:102D0000154694F84100202836D1019800B10DB93C
:102D10000120FEBD01982062A584E5840020606446
:102D2000212084F841001548A16B88621448A16BEA
:102D3000C8621448A16B08630020A16B486301AE10
:102D400023681A1D31682B46A06BFEF7EAFC6FF072
:102D500040002168086000BF00BF2168143151E8BD
:102D6000001F41F080002168143141E80002002A70
:102D7000F3D100BF0020CCE70220CAE7A53200084B
:102D8000FD3200087D31000810B504460648844233
:102D900003D1064802F013FE05E00548844202D143
:102DA000044802F00CFE10BDF4000020C8270020EB
:102DB000840100200C280020704700BFFEE70000BF
:102DC00010B50E480E4908600920486000210C48E3
:102DD0008160C1604FF4403101614FF400114161E5
:102DE0000021017641768176C17601774177FDF742
:102DF000E1FF08B1FDF71BFD10BD000000640040BD
:102E0000CC00002008B500BF1248406940F0010026
:102E1000104948610846406900F00100009000BF79
:102E200000BF002205210D20FEF730FF0D20FEF728
:102E30001DFF002205210E20FEF728FF0E20FEF7C1
:102E400015FF002205210F20FEF720FF0F20FEF7BF
:102E50000DFF08BD0010024010B5044A00210448CF
:102E600001F072FD0349086010BD00001C6C0008F1
:102E7000D15700080000002000B585B00020019067
:102E800002900390049000BF2C48806940F010002D
:102E90002A4988610846806900F01000009000BF50
:102EA00000BF00BF0846806940F0200088610846E6
:102EB000806900F02000009000BF00BF00BF0846FE
:102EC000806940F0040088610846806900F00400D1
:102ED000009000BF00BF00BF0846806940F00800B6
:102EE00088610846806900F00800009000BF00BFBC
:102EF000002203211248FEF703FE00224FF47071F6
:102F00001048FEF7FDFD03200190012002900020F3
:102F100003900320049001A90948FEF751FC4FF4E7
:102F20007070019001200290002003900320049013
:102F300001A90448FEF744FC05B000BD00100240A2
:102F4000000C01400010014010B50B480B4908600F
:102F50004FF4E1304860002108488160C1600161A0
:102F60000C21416100218161C161FFF727FD08B19A
:102F7000FDF75DFC10BD000000380140F4000020AA
:102F800010B50B480B4908604FF4E1304860002150
:102F900008488160C16001610C21416100218161AB
:102FA000C161FFF70BFD08B1FDF741FC10BD00004A
:102FB000004400403C01002010B50B480B4908605C
:102FC0004FF4E1304860002108488160C160016130
:102FD0000C21416100218161C161FFF7EFFC08B163
:102FE000FDF725FC10BD00000048004084010020D2
:102FF00000BFFEE700BFFEE708B508490968C90839
:103000004FF47A72B1FBF2F14143009100BF00BF6F
:1030100000994A1E00920029F9D108BD1000002035
:1030200010B500BF502080F31188BFF34F8FBFF35E
:103030006F8F00BF03F0B2FB18B14FF0805004490E
:10304000086000BF002080F3118800BF10BD0000A1
:1030500004ED00E000B58FB0282105A8FDF7FBF8CE
:1030600014216846FDF7F7F801200590000406904A
:10307000002007900120099002200C90C1030D91BF
:103080004FF4E0110E9105A8FEF798FF08B1FDF787
:10309000CEFB0F20009002200190002002904FF400
:1030A000806003900020049002216846FEF740FEF5
:1030B00008B1FDF7BCFB0FB000BD704710B502486A
:1030C000FFF72DFA10BD00009802002010B502682D
:1030D000204B98420ED0204B98420BD0B0F1804F3D
:1030E00008D01E4B984205D01D4B984202D01D4B74
:1030F000984203D122F070024B681A43154B984254
:103100000ED0154B98420BD0B0F1804F08D0134B26
:10311000984205D0124B984202D0124B984203D1EC
:1031200022F44072CB681A4322F080034C6943EAD0
:10313000040202608B68C3620B688362054B98428D
:1031400002D0054B984201D10B690363012343610F
:1031500010BD0000002C014000340140000400407C
:1031600000080040000C004070B505466C6A002065
:10317000E085E0842046FFF7ADFA70BD70B50646E5
:103180000025746A20684069C0F3C01594F84100B6
:10319000212805D125B10020E084204600F0FBF86D
:1031A00020684069C0F3801594F84200222805D1B8
:1031B00025B10020E085204600F0A7F8606C40F0C3
:1031C000100060642046FFF785FA70BD70B50546B3
:1031D0006C6A2868006800F02000002842D1E08571
:1031E00000BF00BF21680C3151E8001F21F480703E
:1031F00021680C3141E80002002AF3D100BF00BF72
:1032000000BF2168143151E8001F21F0010021683E
:10321000143141E80002002AF3D100BF00BF00BF13
:103220002168143151E8001F21F040002168143159
:1032300041E80002002AF3D100BF202084F84200B8
:10324000206B01280ED100BF00BF21680C3151E86E
:10325000001F21F0100021680C3141E80002002A13
:10326000F3D100BF00206063206B012804D1A18D41
:103270002046FFF72EFA02E02046FFF70BFD70BD57
:1032800070B505466C6A01206063206B012805D18A
:10329000A08D41082046FFF71CFA02E02046FFF708
:1032A00013FD70BD70B505466C6A2868006800F0B3
:1032B0002000F8B90020E08400BF00BF216814316D
:1032C00051E8001F21F080002168143141E800021C
:1032D000002AF3D100BF00BF00BF21680C3151E8C4
:1032E000001F41F0400021680C3141E80002002A33
:1032F000F3D102E02046FFF747FD70BD70B50446EC
:10330000656A2846FFF758FD70BD00BF00BF026820
:103310000C3252E8002F22F4907102680C3242E81D
:103320000013002BF3D100BF00BF00BF02681432AE
:1033300052E8002F22F001010268143242E8001323
:10334000002BF3D100BF016B01290ED100BF00BFDC
:1033500002680C3252E8002F22F0100102680C3291
:1033600042E80013002BF3D100BF202180F8421067
:1033700000210163704710B504462068C06820F042
:1033800040002168C860202084F841002046FFF7F3
:10339000FBFC002010BD00BF00BF02680C3252E8E9
:1033A000002F22F0C00102680C3242E80013002B0B
:1033B000F3D100BF202180F8411070472DE9F04182
:1033C00004460D461646002794F84270202F26D159
:1033D00005B116B90120BDE8F08100BF94F84000A6
:1033E000012801D10220F6E7012084F8400000BF47
:1033F000A562A685002060642268111D33462A4616
:10340000E06BFEF755F92068406940F04000216804
:10341000486100BF002084F8400000BFDBE70220C5
:10342000D9E7F8B5044694F84200222875D1A0687F
:10343000B0F5805F0CD1206950B90025A66A2068DC
:103440004068C0F308003080A06A801CA06215E0CC
:10345000A56A0026A068B0F5805F03D0A06828B9EF
:10346000206918B920684068287004E02068406826
:1034700000F07F002870A06A401CA062E08D401E12
:1034800080B2E085002846D12068C06820F0200086
:103490002168C8602068C06820F480702168C86016
:1034A0002068406920F0010021684861202084F8EC
:1034B000420000206063206B012826D10020206399
:1034C00000BF00BF21680C3151E8001F21F010003F
:1034D00021680C3141E80002002AF3D100BF2068C6
:1034E000006800F0100010280AD100BF00200090F2
:1034F00020680068009020684068009000BF00BF0E
:10350000A18D2046FFF7E5F802E02046FFF7C2FB59
:103510000020F8BD01E00020FBE70220F9E70000F1
:1035200070B504462168096921F44051E2681143ED
:10353000226811612269A1681143626941EA0205AA
:103540002168C96841F20C62914329432268D16025
:103550002168496921F44071A269114322685161CF
:103560002D4A2168914202D1FEF7E0FC01E0FEF70E
:10357000CDFC00EBC00101EB001162689200B1FBD1
:10358000F2F100EBC00202EB001263689B00B2FB99
:10359000F3F26423B2FBF3F202EBC20303EB021279
:1035A000A1EB8201322202EB01116422B1FBF2F1A4
:1035B00001F0F00100EBC00202EB001263689B0017
:1035C000B2FBF3F26423B2FBF3F201EB021200EB65
:1035D000C00101EB001163689B00B1FBF3F100EB4C
:1035E000C00303EB00136668B600B3FBF6F3642672
:1035F000B3FBF6F303EBC30606EB0313A1EB830166
:10360000322303EB01116423B1FBF3F101F00F014D
:1036100011442268916070BD0038014077B581B0D7
:10362000044615460298A062A58500206064222009
:1036300084F842002848E16B88622848E16BC86240
:103640002748E16B08630020E16B486302AE3268F3
:103650002368191D2B46E06BFEF763F800BF0020BE
:10366000009020680068009020684068009000BFCB
:1036700000BF206970B100BF00BF21680C3151E864
:10368000001F41F4807021680C3141E80002002ADB
:10369000F3D100BF00BF00BF2168143151E8001F03
:1036A00041F001002168143141E80002002AF3D101
:1036B00000BF00BF00BF2168143151E8001F41F076
:1036C00040002168143141E80002002AF3D100BF14
:1036D000002004B070BD0000CD3100088132000828
:1036E0007D310008014691F84100212828D18868E1
:1036F000B0F5805F0BD1086948B90A6A1088C0F339
:1037000008000B685860086A801C086205E00B6AB4
:10371000581C086218780B685860C88C401E80B22C
:10372000C88458B90868C06820F080000B68D86069
:103730000868C06840F040000B68D86000207047FF
:103740000220FCE710B50248FEF7C6FF10BD0000DE
:10375000F400002010B50248FEF7BEFF10BD0000C7
:103760008401002010B50248FDF7FDF910BD0000EE
:10377000CC00002010B50248FDF7F5F910BD00009F
:10378000CC00002000BFFEE70FB47CB50C0009ADF3
:1037900001D0611E00E00021CDE90001064B6A4620
:1037A0002946089800F01EF9002C02D0009A00214A
:1037B00011707CBC5DF814FBEB4000087CB50C007C
:1037C0001D461646014601D0601E00E00020CDE9EE
:1037D0000010064B6A462946304600F003F9002CDB
:1037E00002D0009A002111707CBD0000EB4000085F
:1037F00002480068C0F30220704700000CED00E0B2
:1038000010B5002804DB0A07130E054A135406E01E
:103810000A07140E034A00F00F031B1FD45410BDF7
:1038200000E400E018ED00E0EFF311807047EFF3E3
:1038300005807047EFF31080704702E008C8121F40
:1038400008C1002AFAD170477047002001E001C189
:10385000121F002AFBD1704780F3108870470000C8
:103860002DE9FF5F82B00021DDE90430020DDDF8B3
:1038700040B0034318D044F61050A2F2FF32424346
:103880001514119801281FD0A5EB0B00401C5FEA0E
:10389000000A4FF000064E4FDFF83891B046504610
:1038A00015D5CAF1000413E0119801244AA3012898
:1038B00001D16FEA0B010298119AC0E90031C0E909
:1038C000024206B0BDE8F09FCBF10000DFE70446FE
:1038D0000021404A491842EB0450CDE9001012E0A3
:1038E000E00707D032463B4640464946FCF775FDA7
:1038F0008046894632463B4610461946FCF76DFD28
:1039000006460F466410002CEAD1DDE90401DDE92A
:103910000023BAF1000F06DAFCF75FFD42464B4682
:10392000FCF75BFD05E0FCF7CAFD42464B46FCF7A1
:10393000C6FD04460E460022284BFCF70DFF03D8B7
:103940004FF0FF30014607E00022254B204631466C
:10395000FCF79CFCFCF7E7FE102409E0002C0ADBD6
:103960000A220023FCF730FE039B30321A55641EF6
:1039700050EA0102F2D1641C039AC4F11103144409
:10398000119A012A03D0012208430DD10AE008430D
:1039900004D000204FF0110B119072E7A3EB0B0540
:1039A0006D1E0DE05B4504DD4FF0000205F10105E1
:1039B00004E003DA4FF00002A5F10105002AECD083
:1039C00002981199C0E90231C0E9004579E7000089
:1039D000000014400000F03F300000000000F04301
:1039E0000000E03F2DE9FF4F95B09A468846064615
:1039F0000025EEE1252877D100242746F94A012148
:103A0000039400E0044316F8013F203B01FA03F061
:103A10001042F7D130782A2811D06FF02F03307878
:103A2000A0F13002092A16D8039A44F0020402EBEE
:103A3000820203EB42021044761C0390EFE758F831
:103A4000042B0392002A03DA504244F400540390FA
:103A500044F00204761C30782E2816D116F8010F97
:103A600044F004042A280DD06FF02F023078A0F122
:103A70003003092B09D807EB870302EB4303C71870
:103A8000761CF3E758F8047B761C30786C280FD04E
:103A900006DC4C2817D068280DD06A2814D104E021
:103AA000742810D07A280FD10DE044F400140AE0F5
:103AB00044F4801401E044F440147278824202D14C
:103AC00004F58014761C761C307866280BD013DC45
:103AD000582877D009DC002875D04528F6D046282C
:103AE000F4D047281AD193E118E0632835D0642830
:103AF00079D0652812D18BE1702873D008DC672853
:103B0000F1D069286FD06E280DD06F2806D1ACE0B7
:103B100073282CD0752874D0782853D05246179922
:103B200090476D1C54E1C4F30250022809D00328C9
:103B30000DD0D8F8001004280DD00D6008F104084D
:103B400046E1D8F80010EA17C1E90052F6E7D8F8C4
:103B500000100D80F2E70D70F0E718F8041B8DF8E7
:103B6000001000208DF80100EB46012003E058F81A
:103B700004BB4FF0FF3061074FF0000102D40DE0AD
:103B800009F101018946B9420FDA8145F8DB1BF8DA
:103B900009100029F4D108E009F1010189468142A8
:103BA000FADB1BF809100029F6D103985346A0EB65
:103BB000090721463846179A00F080FA284400EB9E
:103BC000090507E044E008E10DE01BF8010B52464F
:103BD00017999047B9F10109F7D253462146384663
:103BE000179AF2E039E00A21C4F302524FF0000BB9
:103BF0000091022A06D058F8040BC117032A09D0F5
:103C00000AE023E008F1070020F00702F2E80201D1
:103C1000904605E000B2C117042A01D140B2C11795
:103C2000002906DA0A460021404261EB02012D22FA
:103C300002E0220504D52B228DF80420012203E0A6
:103C4000E20701D02022F7E7914657E00A2100E081
:103C500010214FF0000B00910BE010214FF0000BF2
:103C600044F004040827009103E008204FF0000B03
:103C70000090C4F30252022A05D058F8040B002128
:103C8000032A08D008E008F1070020F00702F2E854
:103C90000201904603E080B2042A00D1C0B24FF086
:103CA000000922072AD53278702A07D0DDF800C033
:103CB0008CF0100C5CEA0B0C05D00EE040228DF865
:103CC0000420012208E050EA010306D030238DF8D9
:103CD00004308DF8052002229146009B83F00803F2
:103CE00053EA0B030AD150EA010201D1620705D55C
:103CF00030228DF804204FF001097F1E3278582AB7
:103D000004D039A20C920CAA02920BE03BA2F9E774
:103D10005B46009AFCF758FC0C9B9B5C029A521E77
:103D20000292137050EA0102F2D1029804A9081A13
:103D300000F1200B600702D524F4803400E0012755
:103D40005F4502DDA7EB0B0000E0002000EB0B015C
:103D5000009003984944401A0390E00306D4534668
:103D60002146179A039800F0A9F90544002706E0B8
:103D700001A85246C05D179990476D1C7F1C4F45A6
:103D8000F6DBE0030CD553462146179A039800F062
:103D900095F9054404E030205246179990476D1C70
:103DA0000099481E00900029F5DC08E0029802996D
:103DB00052460078491C0291179990476D1CBBF13F
:103DC0000001ABF1010BF1DC5BE100F065F90544AA
:103DD000761C307800287FF40DAE19B02846BDE877
:103DE000F08F000009280100303132333435363786
:103DF0003839616263646566000000003031323337
:103E000034353637383941424344454600000000D6
:103E1000600700D4062708F1070020F00700F0E84B
:103E20000223804603F0004C5FEA0C0001D097A00B
:103E300009E0200501D596A005E0E00701D095A096
:103E400001E0AFF24C001390307823F00043652876
:103E50000CD006DC452809D046281DD047287FD144
:103E60003BE0662818D067287AD136E00021112F70
:103E700001DB112000E0781CCDE9000104A90CA8A9
:103E8000FFF7EEFCDDE90D010C9A4FF0000B07F196
:103E90000109109200914EE04FF000400097CDE9EB
:103EA000011004A90CA8FFF7DBFCDDE90D020C9B57
:103EB0000F994FF0000B91461093009211B9791CA5
:103EC00000EB0109B7EB090003D4C0F1FF3B07F198
:103ED0000109A9EB0700019042E0012F00DA012758
:103EE0000021112F01DD112000E03846CDE900014D
:103EF00004A90CA8FFF7B4FCDDE90D010C9A0091B0
:103F00004FF0000BB946109221070FD4009A4A4592
:103F100003DA914601E0A9F10109B9F1010F05DDCC
:103F2000109AA9F10101515C3029F4D0B84202DAAB
:103F300010F1040F03DA0121CDE9011010E000288F
:103F400003DC8344A9EB000102E0411C494500DD8C
:103F50008946A0EB0B00401C01904FF000400290FE
:103F6000200705D40198484502DB4FF0FF3001904F
:103F700000208DF84B0002980DF14B07B0F1004F77
:103F800025D002200C902B200D90029800280CDAEE
:103F9000404202902D200D9007E00A210298FCF784
:103FA000FDFA3031029007F8011D0C99481E0C9063
:103FB0000029F2DC02980028EFD1791E0D980870D4
:103FC000307800F0200040F0450007F8020D11A8FD
:103FD000C01BC01D02901398007800B1012000EBB7
:103FE0000901019801EBE071029801440398401A1D
:103FF000401E0390E00306D453462146179A0398C7
:1040000000F05CF805441398007818B152461799EF
:1040100090476D1CE00323D553462146179A039819
:1040200000F04CF805441BE0BBF1000F07DB0098E3
:10403000584504DD1098179910F80B0001E0179906
:1040400030205246904701980BF1010B401E05F1BC
:104050000105019004D12E205246179990476D1CFE
:10406000B9F10001A9F10109DEDC05E017F8010B47
:104070005246179990476D1C0299481E02900029DC
:10408000F4DC53462146179A03989EE62D00000063
:104090002B000000200000002DE9F041044600251F
:1040A0001E461746880404D405E039462020B04750
:1040B0006D1C641EF9D52846BDE8F0812DE9F0415C
:1040C000044600251E469046C80301D5302700E06F
:1040D0002027880404D505E041463846B0476D1CCA
:1040E000641EF9D52846BDE8F0814A68002A06D04A
:1040F0000A68531C0B6010704868401E4860704787
:1041000030B58BB0044600BF00BFEFF3108005460A
:1041100000BF72B600BF201D00F059F908BB1AE0BD
:104120002068FCF705FD98B107A9201D00F030F9C3
:10413000079801909DF820000590002003900490BE
:104140006B460DF1210201A92068FCF773FB02E028
:10415000002084F82800201D00F039F90028DFD065
:1041600002E0002084F8280000BF00BF85F310881B
:1041700000BF00BF00BF0BB030BD00002DE9F04311
:10418000A3B005460E46002D48D100BF002400F024
:10419000D7F901283FDBC4F1800103AA101957A207
:1041A000FFF7F2FA044400F024FB4FF47A7190FB1D
:1041B000F1F201FB120800F01CFB4FF47A7190FB46
:1041C000F1F9C4F1800103AA10194B464CA2CDF8B5
:1041D0000080FFF7D9FA04444C484068C4F18001DC
:1041E00003AA009010194AA34BA2FFF7CDFA04448A
:1041F00036204CA1CDE90010C4F1800103AA1019AA
:1042000050A354A200F013FB044400BFA1B203A8C2
:1042100001F048FB00BF00BF00BFFEE73046FCF7DF
:1042200025F8312804D94FF0FF3023B0BDE8F083E2
:1042300031462846FCF721F800BF00BFEFF310809D
:10424000074672B600BF05F1340046490A6850605F
:1042500002604160086000BF00BF00BF002400F0A2
:104260006FF9042841DBC4F1800103AA101923A2CD
:10427000FFF78AFA044400F0BCFA4FF47A7190FB1D
:10428000F1F201FB120800F0B4FA4FF47A7190FBDE
:10429000F1F9C4F1800103AA10194B4618A2CDF818
:1042A0000080FFF771FA044418480069C4F18001E6
:1042B00003AA0090101916A317A2FFF765FA044489
:1042C00095F83200284951F82000C4F1800103AA72
:1042D00000901019334625A200F0A9FA044400BF4B
:1042E000A1B203A801F0DEFA00BF00BF00BF38464C
:1042F000FFF7B2FA00BF002097E700000D0A0000A8
:104300005B25642E253033645D00000038000020FA
:1043100064657669636500005B25735D5B25735D8D
:10432000000000002E2E5C436F6D706F6E656E7422
:10433000735C646576696365735C646576696365FF
:104340002E6300006F626A65637420213D204E5524
:104350004C4C00006661696C212025732025732078
:10436000257300002800002014000020257320720F
:1043700065676973746572207375636365737366CB
:10438000756C2C20747970653A2025732E0000001E
:1043900070B504460D46E06810B94FF0FF3070BDAF
:1043A00061686069884201D9206860612846D4E963
:1043B0000421FBF737FFD4E9041008446061A068CA
:1043C000401CA060E068401EE0600020E7E7014676
:1043D000C86808B9012070470020FCE72DE9F047C4
:1043E00004460F4615461FB94FF0FF30BDE8F08771
:1043F000E06808B90020F9E700BF72B600BFE068C6
:1044000020B900BF62B600BF0020EFE761682069F5
:10441000884201D920682061E068A84201DD284671
:1044200000E0E068054621696068401A461CAE421B
:1044300009DB2E46324638462169FBF7F3FE206938
:10444000304420610EE0A5EB06093246384621696A
:10445000FBF7E8FEB8194A462168FBF7E3FE20683F
:1044600048442061A0682844A060E068401BE060E8
:10447000A84600BF62B600BF4046B7E703461960D2
:104480008818401E58609A600020D86019615961F0
:1044900000BF986100BF70472DE9F0470446884689
:1044A0001546B8F1000F03D14FF0FF30BDE8F0879B
:1044B000A06808B90020F9E700BF72B600BFA06885
:1044C00020B900BF62B600BF0020EFE761686069F5
:1044D000884201D920686061A068A84201DD2846B1
:1044E00000E0A068054661696068401A461CAE425B
:1044F00009DB2E46324641466069FBF793FE606950
:10450000304460610FE0A5EB060932464146606920
:10451000FBF788FE08EB06014A462068FBF782FE9F
:10452000206848446061A068401BA060E06828449F
:10453000E0602F4600BF62B600BF3846B6E7000015
:1045400001480078704700005000002070B5064612
:104550000C4620780F2800D070BD182206F14801C3
:1045600006F16000FBF75EFE06F148056078A17871
:1045700040EA0120C0F30A002880A078C010E1784A
:1045800040EA4110C0F30A006880E0788011217988
:1045900040EA8100617940EA8120C0F30A00A880E6
:1045A00060794010A17940EAC110C0F30A00E880A8
:1045B000A0790011E17940EA0110C0F30A002881D6
:1045C000E079C011217A40EA4100617A40EA412055
:1045D000C0F30A006881607A8010A17A40EA8110F5
:1045E000C0F30A00A881A07A4011E17A40EAC10034
:1045F000E881207B617B40EA0120C0F30A00288229
:10460000607BC010A17B40EA4110C0F30A006882C1
:10461000A07B8011E17B40EA8100217C40EA81207F
:10462000C0F30A00A882207C4010617C40EAC110DF
:10463000C0F30A00E88200BF8EE75021095AB1F5A5
:10464000C87F0EDA30F8781F41F00101018001784F
:1046500001F004010180017801F0020120F87819CD
:1046600022E05021095A40F2DC5291420EDD10F84E
:10467000781F01F001010180017801F00201018041
:10468000018841F0040120F878190DE010F8781F36
:1046900001F001010180018841F0020101800178EF
:1046A00001F0040120F878195221095AB1F5C87FA8
:1046B0000EDA30F8781F41F008010180017801F02E
:1046C00010010180017801F0200120F8781922E022
:1046D0005221095A40F2DC5291420EDD10F8781F47
:1046E00001F008010180017801F0100101800188CA
:1046F00041F0200120F878190DE010F8781F01F042
:1047000008010180018841F010010180017801F069
:10471000200120F878195421095AB1F5C87F0EDA22
:1047200010F8781F01F040010180017801F080014C
:104730000180018841F4807120F8781922E0542129
:10474000095A40F2DC5291420EDD30F8781F41F0F8
:1047500040010180017801F080010180018801F4AD
:10476000807120F878190DE010F8781F01F04001F1
:104770000180018841F080010180018801F480718D
:1047800020F878195621095AB1F5C87F0DDA30F8AA
:10479000781F41F400710180018801F4806101807B
:1047A000018801F4006120F878195621095A40F275
:1047B000DC5291420EDD30F8781F01F40071018067
:1047C000018801F480610180018841F4006120F8D2
:1047D00078190DE030F8781F01F40071018001882C
:1047E00041F480610180018801F4006120F87819AA
:1047F000704710B5FDF78AF910BD0FB410B5A2B01F
:10480000002425A80190C4F1800102A8019B249AEC
:10481000FEF7D4FF04440020019000BFA1B202A81B
:1048200001F040F800BF22B010BC5DF814FB0FB4DB
:10483000F8B505460E46002409A8009031462846E2
:10484000009B089AFEF7BAFF04440020009020461F
:10485000F8BC5DF814FBFDF76BF9FEF7FBFBFEF708
:104860000BFBFEF7CFFAFEF76FFBFEF789FBFEF7B7
:10487000A3FBFEF7A5FA00F017FF00F023F8FEF700
:10488000EBFA00F03FF800BFFEE7000070B5054608
:10489000FEF7CDFF48B9FEF7CDFF30B908480068F4
:1048A000022805D1FEF7C0FF10B16FF0050404E047
:1048B000002415B1284601F023FA204670BD0000FF
:1048C000A400002010B5FEF7B2FF48B9FEF7B2FF12
:1048D00030B90B480068022805D1FEF7A5FF10B1DA
:1048E0006FF0050409E00648006820B9012004497A
:1048F0000860002401E04FF0FF34204610BD0000A6
:10490000A400002010B5FEF792FF48B9FEF792FF11
:1049100030B90C480068022805D1FEF785FF10B1B8
:104920006FF005040CE007480068012806D102205A
:104930000449086001F060FA002401E04FF0FF3400
:10494000204610BDA40000202DE9F04786B0804627
:104950008946144600200490FEF769FF00285DD1C7
:10496000FEF768FF002859D12D480068022803D1BE
:10497000FEF75AFF002851D1B8F1000F4ED0802623
:104980001825002005900DF1140A471E44B3206835
:1049900008B1D4F800A0A06900B1A5692DB1382DE7
:1049A00003D8207900F0010018B1002006B0BDE85E
:1049B000F087606908B160698608A06840B1E06866
:1049C0005C2805D3206918B1606908B1012708E0A7
:1049D000A06830B9E06820B9206910B9002700E06C
:1049E0000027012F0CD12169A0684B463246CDE942
:1049F000005102905146404601F05EFE04900DE0E9
:104A000067B904A8B2B24B465146CDE900504046C2
:104A100001F020FE012801D0002004900498C5E791
:104A2000A40000202DE9F04105460E46164807680F
:104A300016480068001D00F0E2FF681C38B936B166
:104A400012480168091D124801F030F81AE07C197B
:104A50000E4800684460BC4207D20C480168091D3A
:104A60000C48006801F008F80CE008480168091DCE
:104A70000948006801F000F808480068844201D243
:104A800006480460BDE8F081680000205400002062
:104A9000402D00205C0000205800002084000020F1
:104AA00010B5044601F00EF824480068401C234964
:104AB00008602348006840B921480460084600683F
:104AC00001280DD100F0F8F90AE01E48006838B955
:104AD0001B480068C06AE16A884201D8184804602F
:104AE00019480068401C184908600846006860645E
:104AF0001649E06A0968884202D91449E06A0860E8
:104B0000E16A01EB8101124A02EB8100211D00F0F4
:104B1000CDFF01F001F80B48006868B10848006853
:104B2000C06AE16A884207D24FF0805009490860A4
:104B3000BFF34F8FBFF36F8F10BD000064000020E4
:104B40005400002070000020800000206C00002035
:104B50009028002004ED00E008B500F0B3FF1248F3
:104B60000068E8B9114800F077FF114800F074FFC1
:104B70000E48104908600E480F49086000200F4B8E
:104B80000F4A102100900A2001F05EFA06490860E1
:104B90000846006820B10BA10348006801F074F8D2
:104BA00000F0BAFF08BD000098000020542D00203E
:104BB000682D002090000020940000207C2D002013
:104BC000CC2D0020546D72510000000010B516E08D
:104BD00000F078FF0C48C068C468201D00F00FFF8B
:104BE0000A480068401E0949086009480068401EDC
:104BF0000749086000F090FF204600F05EF8044886
:104C000000680028E4D110BD2C2D00206400002095
:104C10006000002070B504460D46206C70B1216C18
:104C2000E0680844E0606168E068884201D3206879
:104C3000E0602846226CE168FBF7F4FA70BD2DE9CC
:104C4000F04104460F4615464FF00008A66B206C55
:104C500040B9206860BB606801F042FE80460020D9
:104C6000606025E07DB93946226CA068FBF7DAFA6E
:104C7000216CA0680844A060D4E90110884217D3D1
:104C80002068A06014E03946226CE068FBF7CAFA9D
:104C9000216CE068401AE0602168E068884203D235
:104CA000216C6068401AE060022D01D106B1761EC9
:104CB000701CA0634046BDE8F08110B5044694F82E
:104CC000590030B9206B00F045FF204600F042FF4C
:104CD0001AE094F85900012803D1204600F03AFF69
:104CE00012E094F85900022801D1012000E00020D0
:104CF00050B900BF502080F31188BFF34F8FBFF32E
:104D00006F8F00BF00BFFEE710BD00000146084ADC
:104D1000126812680AB9012200E000220A600A68DB
:104D200022B9034A1268D268106800E00020704778
:104D30009000002030B54FF42053174800F00704CE
:104D40002CB1C01D20F00700134C041B1B1B024696
:104D5000124C22600024114D6C60D018083820F0ED
:104D600007000F4C206000240D4D2D686C600C4D29
:104D70002D682C601146441A4C60094C24680C6064
:104D8000084D4C682C60084D4C682C604FF0004476
:104D9000064D2C6030BD000024350020A800002006
:104DA000B0000020B8000020B4000020BC000020AB
:104DB00000BFFFF70BFF064800680128F9D94FF044
:104DC000805004490860BFF34F8FBFF36F8FF0E747
:104DD0009028002004ED00E02DE9F04106460D4644
:104DE00017469846069C0DB9246000E02760E663EC
:104DF00025640121204601F097F984F84C80BDE834
:104E0000F0812DE9F05F82460F4690469B460A9E50
:104E10000C9C4FEA8801A522206BFBF715FAA8F13C
:104E20000100216B01EB800929F0070909F0070057
:104E300008B9012000E0002050B900BF502080F3E5
:104E40001188BFF34F8FBFF36F8F00BF00BFFEE726
:104E5000002507E0795D04F134004155785D00B923
:104E600002E06D1C102DF5D300BF00214320015539
:104E7000382E00D33726E662E66400202065201D28
:104E800000F0F7FD04F1180000F0F3FD2461C6F115
:104E90003800A06164620020606584F858005A46BA
:104EA0005146484600F042FB20600B9808B10B9831
:104EB0000460BDE8F09F000010B5002407E004EB9B
:104EC00084010F4A02EB810000F0C6FD641C382CFF
:104ED000F5D30C4800F0C0FD0B4800F0BDFD0B48B9
:104EE00000F0BAFD0A4800F0B7FD0A4800F0B4FD32
:104EF00004480949086004480849086010BD0000DA
:104F000090280020F02C0020042D0020182D0020D7
:104F10002C2D0020402D0020580000205C00002097
:104F200010B50146164800E0006803688B42FBD3C9
:104F30000246436813448B4204D143684C682344BF
:104F4000436001460A464B6813440468A34211D1EA
:104F50000C4C03682468A34208D04B68046864685A
:104F600023444B6003681B680B6005E0054B1B681E
:104F70000B6001E003680B60884200D0016010BD47
:104F8000A8000020B00000202DE9F04104460D46A5
:104F900016461F464FF0000865602461B5420CD8E4
:104FA000F01BA169884202D34FF0010811E0211DD6
:104FB0000948006800F060FD0BE0BE4204D2BD422B
:104FC00002D34FF0010804E0211D0448006800F0FE
:104FD00053FD4046BDE8F081940000209000002081
:104FE00070B5054600F06EFDA86B08B9012400E01D
:104FF000002400F091FD204670BD70B5054600F01C
:1050000061FDA86BE96B884201D1012400E0002416
:1050100000F082FD204670BDF8B505460F461648E3
:105020000068C068C468201D00F0E9FCE069012840
:105030001DD1A06941192B463A462046FFF7A4FF2F
:10504000A8B1002003462A4601460090204601F000
:10505000A3FD064656B900BF502080F31188BFF368
:105060004F8FBFF36F8F00BF00BFFEE700BF20462A
:10507000616A8847F8BD000090000020F0B587B055
:1050800082E00398002811DA04AE56B900BF502020
:1050900080F31188BFF34F8FBFF36F8F00BF00BF46
:1050A000FEE7D6E90020B168904700BF03980028CA
:1050B0006ADB059C606908B9012000E0002010B996
:1050C000201D00F09CFC02A800F0C0F805460398E3
:1050D0000A2857D2DFE800F009050731334F0608E8
:1050E000323400BF00BF00BF00BF0498A26981181E
:1050F00003462A462046FFF747FFE8B12046616A8B
:105100008847E069012817D1002000900498A16920
:10511000421800231946204601F03EFD074657B9C4
:1051200000BF502080F31188BFF34F8FBFF36F8F04
:1051300000BF00BFFEE700BF25E000BF23E000BFC7
:105140000498A061A06908B1012000E0002050B9D6
:1051500000BF502080F31188BFF34F8FBFF36F8FD4
:1051600000BF00BFFEE7A06941192B462A46204632
:10517000FFF70AFF07E094F82C0010B9204600F072
:10518000E9FC00E000BF00BF002203A9044800685A
:1051900001F066F900287FF474AF07B0F0BD00009D
:1051A00098000020F8B505460C4600F081FE6846E0
:1051B00000F04CF80646009820BB44B9B54206D82A
:1051C00001F02CFC31462846FFF726FF1CE03CB1DD
:1051D0000E480068006808B9012000E0002004467D
:1051E000A91B22460A48006800F064FD01F016FC85
:1051F00050B94FF0805007490860BFF34F8FBFF39D
:105200006F8F01E001F00AFCF8BD0000940000205F
:105210009800002004ED00E00A490968096809B90E
:10522000012100E0002121B14FF0FF31064A116059
:1052300006E004490968C968C868034A4168116002
:1052400070470000580000208400002070B504461C
:1052500001F09EFA054607480068854204D200F036
:105260000BF80120206001E000202060014805606B
:10527000284670BDA00000202DE9F84332E0244804
:105280000068C068056822480068C068C468201DBE
:1052900000F0B5FB2046616A8847E069012821D10A
:1052A000A0694619AE4207D966602461211D1848DD
:1052B000006800F0E1FB15E0002003462A460146A5
:1052C0000090204601F068FC074657B900BF502007
:1052D00080F31188BFF34F8FBFF36F8F00BF00BF04
:1052E000FEE700BF0A480068006808B9012000E036
:1052F00000200028C3D00648D0F800800548006888
:10530000034908600348C0F80080BDE8F883000046
:1053100090000020940000200E480068401C08B94E
:10532000012000E0002050B900BF502080F3118818
:10533000BFF34F8FBFF36F8F00BF00BFFEE700BF0B
:10534000502080F31188BFF34F8FBFF36F8F00BFE2
:1053500000BFFEE7C000002008B500BF6846FFF7A9
:10536000D5FC044620460099FFF71CFFFFF786FE98
:10537000F4E770B5044600F0A5FB94F9455010E041
:10538000606A08B9012000E0002038B904F1240067
:1053900001F0F8FA18B100F0EDFC00E003E0681E3F
:1053A00045B2002DECDC00BFFF2084F8450000F082
:1053B000B3FB00F087FB94F9445010E0206908B972
:1053C000012000E0002048B904F1100001F0DAFAF1
:1053D00008B100F0CFFC681E45B200E001E0002DEE
:1053E000ECDC00BFFF2084F8440000F095FB70BDAA
:1053F0002DE9F04104464FF0000800F059FD464801
:10540000006808B9FFF796FC44480068204000286F
:105410006BD1D4B1083404F00700B0B104F0070038
:10542000C0F10800044404F0070008B9012000E0BE
:10543000002050B900BF502080F31188BFF34F8F78
:10544000BFF36F8F00BF00BFFEE7002C4DD0344884
:105450000068844249D8334E3046056801E02E4644
:105460002D686868A04202D228680028F7D12A482F
:105470000068854239D0306800F10808286830603B
:105480006868001B102819D92F1907F0070008B900
:10549000012000E0002050B900BF502080F31188A7
:1054A000BFF34F8FBFF36F8F00BF00BFFEE7686889
:1054B000001B78606C603846FFF732FD1849686859
:1054C0000968081A164908600846006816490968FC
:1054D000884203D212480068134908600F4968687F
:1054E0000968084368600020286001F097FA08F016
:1054F000070008B9012000E0002050B900BF50208B
:1055000080F31188BFF34F8FBFF36F8F00BF00BFD1
:10551000FEE74046BDE8F081B0000020BC0000205E
:10552000B4000020A8000020B8000020001F4FF0A9
:1055300080730360001F21F001030360001F034B11
:1055400003601438026020387047000019530008C7
:1055500070B504460D464CB129462046E26F90478F
:105560002046D4F880108847002070BD6FF00300FB
:10557000FBE700002DE9F041A2B005460E46002DE4
:1055800047D100BF0024FEF7DBFF01283EDBC4F15A
:10559000800102AA101927A2FEF7F6F80444FFF7CB
:1055A00028F94FF47A7190FBF1F201FB1207FFF733
:1055B00020F94FF47A7190FBF1F8C4F1800102AA4E
:1055C000101943461CA20097FEF7DEF804441D485C
:1055D0004068C4F1800102AA009010191AA31DA20C
:1055E000FEF7D2F804441E201DA1CDE90010C4F13D
:1055F000800102AA101922A325A2FFF718F904447A
:1056000000BFA1B202A800F04DF900BF00BF00BF6B
:10561000FEE7022085F832002148E8672148C5F8F6
:10562000800031462846FEF7A9FD002022B0BDE8E3
:10563000F08100000D0A00005B25642E25303364E4
:105640005D000000380000206472762E736275736E
:10565000000000005B25735D5B25735D00000000AA
:105660002E2E5C436F6D706F6E656E74735C646537
:1056700076696365735C736275732E630000000066
:1056800072635F64657620213D204E554C4C0000CE
:105690006661696C21202573202573202573000025
:1056A0004D4500083B46000870B5A2B000F0C0F8B8
:1056B00026A0FFF7A2F800BF0024FEF741FF042850
:1056C00039DBC4F1800102AA101930A2FEF75CF8A0
:1056D0000444FFF78EF84FF47A7190FBF1F201FB6E
:1056E0001205FFF786F84FF47A7190FBF1F6C4F1DA
:1056F000800102AA1019334625A20095FEF744F84E
:10570000044426480069C4F1800102AA00901019DF
:1057100023A325A2FEF738F80444C4F1800102AAAD
:10572000101924A2FFF783F8044400BFA1B202A815
:1057300000F0B8F800BF00BF0021224800F05AF87E
:1057400021A12248FFF716FF22B070BD0D0A0D0AF5
:105750002D2D2D2D2D2D2D2D2D2D2D2D2D2D2D2D79
:105760002D2D2D2D2D2D2D2D2D2D2D2D2D2D2D2D69
:105770002D2D2D2D2D2D2D2D2D2D2D2D2D2D2D2D59
:105780002D2D2D2D2D2D2D2D2D0000000D0A00006D
:105790005B25642E253033645D0000003800002056
:1057A000696E6974000000005B25735D5B25735DA5
:1057B0000000000073797374656D207374617274F6
:1057C0002E000000DD57000874313200E002002096
:1057D00010B500BF0120FFF759F8FBE770B504468C
:1057E0000D4621460248FFF7B3FE002070BD0000C1
:1057F000E002002070B505460C46322208490948EF
:10580000FDF7DCFD07480068C06840F0100005495E
:105810000968C860044805600448046070BD000061
:10582000941300203C0100203000002034000020B0
:1058300010B516481649C8604FF400700881154825
:105840004860154808601548C8634FF40060A1F827
:1058500040008010888312488861002081F842004F
:105860004FF400620D490A482030FEF707FE4FF45E
:10587000007206490848FDF7F7F907480068C06854
:1058800040F0100004490968C86010BDC81B002022
:10589000C8270020CC010020F4000020C81F0020F1
:1058A000C81D002070B504460D462A462146024810
:1058B00000F03BF870BD0000C82700202DE9F84F2C
:1058C00004460D460027002600200090B4F8108002
:1058D000D4F80C906068006840681FFA80FA1DB91F
:1058E0002089A0EB0A0087B2012D03D1208900EBAB
:1058F000D0714F10022D00D12789208A381A86B224
:10590000606940B109EB080B31465846626990471F
:1059100080B2009000BF208A3044218990FBF1F2D0
:1059200001FB12002082BDE8F88F2DE9F047044604
:105930008846174694F84200A0B9A08BB84202DD11
:105940003D46002618E0A08BB4F840100844B84249
:1059500004DDA58BA08B381A86B20DE0A58BB4F8B8
:10596000406009E0B4F84000B84202DD00253E4640
:1059700002E00025B4F84060002D0CDD2A464146C7
:10598000A069FAF74FFC012084F842002A46A16979
:105990002068FDF7B3F9002E0FDD08EB0501324654
:1059A00004F12000FEF778FD00F0FF09B14503D0B7
:1059B0004FF0FF30BDE8F08700BF0020FAE770B578
:1059C000044600250026A08D85B2A5B1A08BA84273
:1059D00001DD2E4600E0A68B324604F12000A169CD
:1059E000FEF7FCFC012084F842003246A1692068E1
:1059F000FDF784F902E0002084F8420070BD014602
:105A00000A69D1E901309860D1E901035860506812
:105A1000884201D188685060002008611068401EEB
:105A20001060106870470000034B0360034B0B606D
:105A300080231360704700006C2E0020C82E0020C9
:105A4000034B0360034B0B604FF48073136070478C
:105A5000C83000202431002000F1080141604FF0DF
:105A6000FF31816000F10801C16001610021016026
:105A7000704700210161704710B502460B685C1C3D
:105A80000CB9106907E002F1080000E040684468C2
:105A900024689C42FAD944684C604C68A1608860D4
:105AA00041600A611468641C146010BD42684A6059
:105AB00093688B60936859609160086103685B1C10
:105AC0000360704700BF502080F31188BFF34F8FF1
:105AD000BFF36F8F00BF0E480068401C0C49086080
